{
  "_format": "hh-sol-artifact-1",
  "contractName": "Airdrop",
  "sourceName": "contracts/Airdrop.sol",
  "abi": [
    {
      "inputs": [
        {
          "internalType": "address",
          "name": "_address",
          "type": "address"
        }
      ],
      "stateMutability": "nonpayable",
      "type": "constructor"
    },
    {
      "anonymous": false,
      "inputs": [
        {
          "indexed": true,
          "internalType": "address",
          "name": "previousOwner",
          "type": "address"
        },
        {
          "indexed": true,
          "internalType": "address",
          "name": "newOwner",
          "type": "address"
        }
      ],
      "name": "OwnershipTransferred",
      "type": "event"
    },
    {
      "inputs": [],
      "name": "govToken",
      "outputs": [
        {
          "internalType": "contract IERC20",
          "name": "",
          "type": "address"
        }
      ],
      "stateMutability": "view",
      "type": "function"
    },
    {
      "inputs": [],
      "name": "owner",
      "outputs": [
        {
          "internalType": "address",
          "name": "",
          "type": "address"
        }
      ],
      "stateMutability": "view",
      "type": "function"
    },
    {
      "inputs": [],
      "name": "renounceOwnership",
      "outputs": [],
      "stateMutability": "nonpayable",
      "type": "function"
    },
    {
      "inputs": [
        {
          "internalType": "address[]",
          "name": "_recipients",
          "type": "address[]"
        },
        {
          "internalType": "uint256",
          "name": "_amount",
          "type": "uint256"
        }
      ],
      "name": "sendBatch",
      "outputs": [
        {
          "internalType": "bool",
          "name": "",
          "type": "bool"
        }
      ],
      "stateMutability": "nonpayable",
      "type": "function"
    },
    {
      "inputs": [
        {
          "internalType": "address",
          "name": "newOwner",
          "type": "address"
        }
      ],
      "name": "transferOwnership",
      "outputs": [],
      "stateMutability": "nonpayable",
      "type": "function"
    }
  ],
  "bytecode": "0x608060405234801561001057600080fd5b5060405161066f38038061066f83398101604081905261002f916100ad565b6100383361005d565b600180546001600160a01b0319166001600160a01b03929092169190911790556100db565b600080546001600160a01b038381166001600160a01b0319831681178455604051919092169283917f8be0079c531659141344cd1fd0a4f28419497f9722a3daafe3b4186f6b6457e09190a35050565b6000602082840312156100be578081fd5b81516001600160a01b03811681146100d4578182fd5b9392505050565b610585806100ea6000396000f3fe608060405234801561001057600080fd5b50600436106100675760003560e01c80638da5cb5b116100505780638da5cb5b146100a6578063b2c536d1146100b7578063f2fde38b146100da57610067565b806305268cff1461006c578063715018a61461009c575b600080fd5b60015461007f906001600160a01b031681565b6040516001600160a01b0390911681526020015b60405180910390f35b6100a46100ed565b005b6000546001600160a01b031661007f565b6100ca6100c5366004610426565b610158565b6040519015158152602001610093565b6100a46100e8366004610405565b61029f565b6000546001600160a01b0316331461014c5760405162461bcd60e51b815260206004820181905260248201527f4f776e61626c653a2063616c6c6572206973206e6f7420746865206f776e657260448201526064015b60405180910390fd5b6101566000610381565b565b600080546001600160a01b031633146101b35760405162461bcd60e51b815260206004820181905260248201527f4f776e61626c653a2063616c6c6572206973206e6f7420746865206f776e65726044820152606401610143565b60005b83518110156102955760015484516001600160a01b039091169063a9059cbb908690849081106101f657634e487b7160e01b600052603260045260246000fd5b6020026020010151856040518363ffffffff1660e01b81526004016102309291906001600160a01b03929092168252602082015260400190565b602060405180830381600087803b15801561024a57600080fd5b505af115801561025e573d6000803e3d6000fd5b505050506040513d601f19601f8201168201806040525081019061028291906104f2565b508061028d81610512565b9150506101b6565b5060019392505050565b6000546001600160a01b031633146102f95760405162461bcd60e51b815260206004820181905260248201527f4f776e61626c653a2063616c6c6572206973206e6f7420746865206f776e65726044820152606401610143565b6001600160a01b0381166103755760405162461bcd60e51b815260206004820152602660248201527f4f776e61626c653a206e6577206f776e657220697320746865207a65726f206160448201527f64647265737300000000000000000000000000000000000000000000000000006064820152608401610143565b61037e81610381565b50565b600080546001600160a01b038381167fffffffffffffffffffffffff0000000000000000000000000000000000000000831681178455604051919092169283917f8be0079c531659141344cd1fd0a4f28419497f9722a3daafe3b4186f6b6457e09190a35050565b80356001600160a01b038116811461040057600080fd5b919050565b600060208284031215610416578081fd5b61041f826103e9565b9392505050565b60008060408385031215610438578081fd5b823567ffffffffffffffff8082111561044f578283fd5b818501915085601f830112610462578283fd5b813560208282111561047657610476610539565b808202604051601f19603f8301168101818110868211171561049a5761049a610539565b604052838152828101945085830182870184018b10156104b8578788fd5b8796505b848710156104e1576104cd816103e9565b8652600196909601959483019483016104bc565b509997909101359750505050505050565b600060208284031215610503578081fd5b8151801515811461041f578182fd5b600060001982141561053257634e487b7160e01b81526011600452602481fd5b5060010190565b634e487b7160e01b600052604160045260246000fdfea264697066735822122030f2732c189f5a79717a0e92648ea5920db6e0c10de811e7b34bd78b27a01e4364736f6c63430008020033",
  "linkReferences": {},
  "deployedLinkReferences": {}
}