{
  "_format": "hh-sol-artifact-1",
  "contractName": "AirdropClaim",
  "sourceName": "contracts/AirdropClaim.sol",
  "abi": [
    {
      "inputs": [
        {
          "internalType": "address",
          "name": "_address",
          "type": "address"
        }
      ],
      "stateMutability": "nonpayable",
      "type": "constructor"
    },
    {
      "anonymous": false,
      "inputs": [
        {
          "indexed": false,
          "internalType": "address",
          "name": "recipient",
          "type": "address"
        },
        {
          "indexed": false,
          "internalType": "uint256",
          "name": "amount",
          "type": "uint256"
        }
      ],
      "name": "Claimed",
      "type": "event"
    },
    {
      "anonymous": false,
      "inputs": [
        {
          "indexed": true,
          "internalType": "address",
          "name": "previousOwner",
          "type": "address"
        },
        {
          "indexed": true,
          "internalType": "address",
          "name": "newOwner",
          "type": "address"
        }
      ],
      "name": "OwnershipTransferred",
      "type": "event"
    },
    {
      "inputs": [
        {
          "internalType": "address",
          "name": "",
          "type": "address"
        }
      ],
      "name": "balances",
      "outputs": [
        {
          "internalType": "uint256",
          "name": "",
          "type": "uint256"
        }
      ],
      "stateMutability": "view",
      "type": "function"
    },
    {
      "inputs": [],
      "name": "claimAirdrop",
      "outputs": [],
      "stateMutability": "nonpayable",
      "type": "function"
    },
    {
      "inputs": [],
      "name": "enabled",
      "outputs": [
        {
          "internalType": "bool",
          "name": "",
          "type": "bool"
        }
      ],
      "stateMutability": "view",
      "type": "function"
    },
    {
      "inputs": [],
      "name": "govToken",
      "outputs": [
        {
          "internalType": "contract IERC20",
          "name": "",
          "type": "address"
        }
      ],
      "stateMutability": "view",
      "type": "function"
    },
    {
      "inputs": [],
      "name": "owner",
      "outputs": [
        {
          "internalType": "address",
          "name": "",
          "type": "address"
        }
      ],
      "stateMutability": "view",
      "type": "function"
    },
    {
      "inputs": [],
      "name": "renounceOwnership",
      "outputs": [],
      "stateMutability": "nonpayable",
      "type": "function"
    },
    {
      "inputs": [
        {
          "internalType": "address[]",
          "name": "_recipients",
          "type": "address[]"
        },
        {
          "internalType": "uint256[]",
          "name": "_amounts",
          "type": "uint256[]"
        }
      ],
      "name": "setAirdrops",
      "outputs": [],
      "stateMutability": "nonpayable",
      "type": "function"
    },
    {
      "inputs": [],
      "name": "toggleEnabled",
      "outputs": [],
      "stateMutability": "nonpayable",
      "type": "function"
    },
    {
      "inputs": [
        {
          "internalType": "address",
          "name": "newOwner",
          "type": "address"
        }
      ],
      "name": "transferOwnership",
      "outputs": [],
      "stateMutability": "nonpayable",
      "type": "function"
    },
    {
      "inputs": [
        {
          "internalType": "address",
          "name": "_address",
          "type": "address"
        },
        {
          "internalType": "uint256",
          "name": "_amount",
          "type": "uint256"
        }
      ],
      "name": "transferTokens",
      "outputs": [],
      "stateMutability": "nonpayable",
      "type": "function"
    }
  ],
  "bytecode": "0x608060405234801561001057600080fd5b50604051610b03380380610b0383398101604081905261002f916100ad565b6100383361005d565b600280546001600160a01b0319166001600160a01b03929092169190911790556100db565b600080546001600160a01b038381166001600160a01b0319831681178455604051919092169283917f8be0079c531659141344cd1fd0a4f28419497f9722a3daafe3b4186f6b6457e09190a35050565b6000602082840312156100be578081fd5b81516001600160a01b03811681146100d4578182fd5b9392505050565b610a19806100ea6000396000f3fe608060405234801561001057600080fd5b50600436106100be5760003560e01c80635b88349d116100765780638da5cb5b1161005b5780638da5cb5b14610172578063bec3fa1714610183578063f2fde38b14610196576100be565b80635b88349d14610162578063715018a61461016a576100be565b8063238dafe0116100a7578063238dafe01461010857806327e235e31461012c5780633044b56c1461015a576100be565b806305268cff146100c35780631b310759146100f3575b600080fd5b6002546100d6906001600160a01b031681565b6040516001600160a01b0390911681526020015b60405180910390f35b610106610101366004610851565b6101a9565b005b60025461011c90600160a01b900460ff1681565b60405190151581526020016100ea565b61014c61013a366004610807565b60016020526000908152604090205481565b6040519081526020016100ea565b6101066102cf565b610106610365565b6101066104ef565b6000546001600160a01b03166100d6565b610106610191366004610828565b610555565b6101066101a4366004610807565b610635565b6000546001600160a01b031633146102085760405162461bcd60e51b815260206004820181905260248201527f4f776e61626c653a2063616c6c6572206973206e6f7420746865206f776e657260448201526064015b60405180910390fd5b6000825111801561021a575080518251145b61022357600080fd5b60005b82518110156102ca5781818151811061024f57634e487b7160e01b600052603260045260246000fd5b60200260200101516001600085848151811061027b57634e487b7160e01b600052603260045260246000fd5b60200260200101516001600160a01b03166001600160a01b0316815260200190815260200160002060008282546102b29190610984565b909155508190506102c28161099c565b915050610226565b505050565b6000546001600160a01b031633146103295760405162461bcd60e51b815260206004820181905260248201527f4f776e61626c653a2063616c6c6572206973206e6f7420746865206f776e657260448201526064016101ff565b600280547fffffffffffffffffffffff00ffffffffffffffffffffffffffffffffffffffff8116600160a01b9182900460ff1615909102179055565b600254600160a01b900460ff166103be5760405162461bcd60e51b815260206004820152601660248201527f61697264726f70206973206e6f7420656e61626c65640000000000000000000060448201526064016101ff565b336000908152600160205260409020548061041b5760405162461bcd60e51b815260206004820152601360248201527f4e6f20756e636c61696d656420746f6b656e730000000000000000000000000060448201526064016101ff565b3360008181526001602052604080822091909155600254905163a9059cbb60e01b81526004810192909252602482018390526001600160a01b03169063a9059cbb90604401602060405180830381600087803b15801561047a57600080fd5b505af115801561048e573d6000803e3d6000fd5b505050506040513d601f19601f820116820180604052508101906104b2919061090f565b5060408051338152602081018390527fd8138f8a3f377c5259ca548e70e4c2de94f129f5a11036a15b69513cba2b426a910160405180910390a150565b6000546001600160a01b031633146105495760405162461bcd60e51b815260206004820181905260248201527f4f776e61626c653a2063616c6c6572206973206e6f7420746865206f776e657260448201526064016101ff565b6105536000610717565b565b6000546001600160a01b031633146105af5760405162461bcd60e51b815260206004820181905260248201527f4f776e61626c653a2063616c6c6572206973206e6f7420746865206f776e657260448201526064016101ff565b60025460405163a9059cbb60e01b81526001600160a01b038481166004830152602482018490529091169063a9059cbb90604401602060405180830381600087803b1580156105fd57600080fd5b505af1158015610611573d6000803e3d6000fd5b505050506040513d601f19601f820116820180604052508101906102ca919061090f565b6000546001600160a01b0316331461068f5760405162461bcd60e51b815260206004820181905260248201527f4f776e61626c653a2063616c6c6572206973206e6f7420746865206f776e657260448201526064016101ff565b6001600160a01b03811661070b5760405162461bcd60e51b815260206004820152602660248201527f4f776e61626c653a206e6577206f776e657220697320746865207a65726f206160448201527f646472657373000000000000000000000000000000000000000000000000000060648201526084016101ff565b61071481610717565b50565b600080546001600160a01b038381167fffffffffffffffffffffffff0000000000000000000000000000000000000000831681178455604051919092169283917f8be0079c531659141344cd1fd0a4f28419497f9722a3daafe3b4186f6b6457e09190a35050565b80356001600160a01b038116811461079657600080fd5b919050565b600082601f8301126107ab578081fd5b813560206107c06107bb83610960565b61092f565b82815281810190858301838502870184018810156107dc578586fd5b855b858110156107fa578135845292840192908401906001016107de565b5090979650505050505050565b600060208284031215610818578081fd5b6108218261077f565b9392505050565b6000806040838503121561083a578081fd5b6108438361077f565b946020939093013593505050565b60008060408385031215610863578182fd5b823567ffffffffffffffff8082111561087a578384fd5b818501915085601f83011261088d578384fd5b8135602061089d6107bb83610960565b82815281810190858301838502870184018b10156108b9578889fd5b8896505b848710156108e2576108ce8161077f565b8352600196909601959183019183016108bd565b50965050860135925050808211156108f8578283fd5b506109058582860161079b565b9150509250929050565b600060208284031215610920578081fd5b81518015158114610821578182fd5b604051601f8201601f1916810167ffffffffffffffff81118282101715610958576109586109cd565b604052919050565b600067ffffffffffffffff82111561097a5761097a6109cd565b5060209081020190565b60008219821115610997576109976109b7565b500190565b60006000198214156109b0576109b06109b7565b5060010190565b634e487b7160e01b600052601160045260246000fd5b634e487b7160e01b600052604160045260246000fdfea264697066735822122083165ea01f2752350884a0b6bd565e9614509a8521cc3ba4c4d9ae07199a63ba64736f6c63430008020033",
  "linkReferences": {},
  "deployedLinkReferences": {}
}