{
  "_format": "hh-sol-artifact-1",
  "contractName": "Bank",
  "sourceName": "contracts/Bank.sol",
  "abi": [
    {
      "inputs": [
        {
          "internalType": "string",
          "name": "_name",
          "type": "string"
        },
        {
          "internalType": "string",
          "name": "_symbol",
          "type": "string"
        },
        {
          "internalType": "contract IERC20",
          "name": "_govToken",
          "type": "address"
        }
      ],
      "stateMutability": "nonpayable",
      "type": "constructor"
    },
    {
      "anonymous": false,
      "inputs": [
        {
          "indexed": true,
          "internalType": "address",
          "name": "owner",
          "type": "address"
        },
        {
          "indexed": true,
          "internalType": "address",
          "name": "spender",
          "type": "address"
        },
        {
          "indexed": false,
          "internalType": "uint256",
          "name": "value",
          "type": "uint256"
        }
      ],
      "name": "Approval",
      "type": "event"
    },
    {
      "anonymous": false,
      "inputs": [
        {
          "indexed": true,
          "internalType": "address",
          "name": "from",
          "type": "address"
        },
        {
          "indexed": true,
          "internalType": "address",
          "name": "to",
          "type": "address"
        },
        {
          "indexed": false,
          "internalType": "uint256",
          "name": "value",
          "type": "uint256"
        }
      ],
      "name": "Transfer",
      "type": "event"
    },
    {
      "inputs": [
        {
          "internalType": "address",
          "name": "owner",
          "type": "address"
        },
        {
          "internalType": "address",
          "name": "spender",
          "type": "address"
        }
      ],
      "name": "allowance",
      "outputs": [
        {
          "internalType": "uint256",
          "name": "",
          "type": "uint256"
        }
      ],
      "stateMutability": "view",
      "type": "function"
    },
    {
      "inputs": [
        {
          "internalType": "address",
          "name": "spender",
          "type": "address"
        },
        {
          "internalType": "uint256",
          "name": "amount",
          "type": "uint256"
        }
      ],
      "name": "approve",
      "outputs": [
        {
          "internalType": "bool",
          "name": "",
          "type": "bool"
        }
      ],
      "stateMutability": "nonpayable",
      "type": "function"
    },
    {
      "inputs": [
        {
          "internalType": "address",
          "name": "account",
          "type": "address"
        }
      ],
      "name": "balanceOf",
      "outputs": [
        {
          "internalType": "uint256",
          "name": "",
          "type": "uint256"
        }
      ],
      "stateMutability": "view",
      "type": "function"
    },
    {
      "inputs": [],
      "name": "decimals",
      "outputs": [
        {
          "internalType": "uint8",
          "name": "",
          "type": "uint8"
        }
      ],
      "stateMutability": "view",
      "type": "function"
    },
    {
      "inputs": [
        {
          "internalType": "address",
          "name": "spender",
          "type": "address"
        },
        {
          "internalType": "uint256",
          "name": "subtractedValue",
          "type": "uint256"
        }
      ],
      "name": "decreaseAllowance",
      "outputs": [
        {
          "internalType": "bool",
          "name": "",
          "type": "bool"
        }
      ],
      "stateMutability": "nonpayable",
      "type": "function"
    },
    {
      "inputs": [
        {
          "internalType": "uint256",
          "name": "_amount",
          "type": "uint256"
        }
      ],
      "name": "enter",
      "outputs": [],
      "stateMutability": "nonpayable",
      "type": "function"
    },
    {
      "inputs": [],
      "name": "govToken",
      "outputs": [
        {
          "internalType": "contract IERC20",
          "name": "",
          "type": "address"
        }
      ],
      "stateMutability": "view",
      "type": "function"
    },
    {
      "inputs": [
        {
          "internalType": "address",
          "name": "spender",
          "type": "address"
        },
        {
          "internalType": "uint256",
          "name": "addedValue",
          "type": "uint256"
        }
      ],
      "name": "increaseAllowance",
      "outputs": [
        {
          "internalType": "bool",
          "name": "",
          "type": "bool"
        }
      ],
      "stateMutability": "nonpayable",
      "type": "function"
    },
    {
      "inputs": [
        {
          "internalType": "uint256",
          "name": "_share",
          "type": "uint256"
        }
      ],
      "name": "leave",
      "outputs": [],
      "stateMutability": "nonpayable",
      "type": "function"
    },
    {
      "inputs": [],
      "name": "name",
      "outputs": [
        {
          "internalType": "string",
          "name": "",
          "type": "string"
        }
      ],
      "stateMutability": "view",
      "type": "function"
    },
    {
      "inputs": [],
      "name": "symbol",
      "outputs": [
        {
          "internalType": "string",
          "name": "",
          "type": "string"
        }
      ],
      "stateMutability": "view",
      "type": "function"
    },
    {
      "inputs": [],
      "name": "totalSupply",
      "outputs": [
        {
          "internalType": "uint256",
          "name": "",
          "type": "uint256"
        }
      ],
      "stateMutability": "view",
      "type": "function"
    },
    {
      "inputs": [
        {
          "internalType": "address",
          "name": "to",
          "type": "address"
        },
        {
          "internalType": "uint256",
          "name": "amount",
          "type": "uint256"
        }
      ],
      "name": "transfer",
      "outputs": [
        {
          "internalType": "bool",
          "name": "",
          "type": "bool"
        }
      ],
      "stateMutability": "nonpayable",
      "type": "function"
    },
    {
      "inputs": [
        {
          "internalType": "address",
          "name": "from",
          "type": "address"
        },
        {
          "internalType": "address",
          "name": "to",
          "type": "address"
        },
        {
          "internalType": "uint256",
          "name": "amount",
          "type": "uint256"
        }
      ],
      "name": "transferFrom",
      "outputs": [
        {
          "internalType": "bool",
          "name": "",
          "type": "bool"
        }
      ],
      "stateMutability": "nonpayable",
      "type": "function"
    }
  ],
  "bytecode": "0x60806040523480156200001157600080fd5b5060405162001252380380620012528339810160408190526200003491620001e9565b8251839083906200004d90600390602085019062000090565b5080516200006390600490602084019062000090565b5050600580546001600160a01b0319166001600160a01b03939093169290921790915550620002c5915050565b8280546200009e9062000272565b90600052602060002090601f016020900481019282620000c257600085556200010d565b82601f10620000dd57805160ff19168380011785556200010d565b828001600101855582156200010d579182015b828111156200010d578251825591602001919060010190620000f0565b506200011b9291506200011f565b5090565b5b808211156200011b576000815560010162000120565b600082601f83011262000147578081fd5b81516001600160401b0380821115620001645762000164620002af565b604051601f8301601f19908116603f011681019082821181831017156200018f576200018f620002af565b81604052838152602092508683858801011115620001ab578485fd5b8491505b83821015620001ce5785820183015181830184015290820190620001af565b83821115620001df57848385830101525b9695505050505050565b600080600060608486031215620001fe578283fd5b83516001600160401b038082111562000215578485fd5b620002238783880162000136565b9450602086015191508082111562000239578384fd5b50620002488682870162000136565b604086015190935090506001600160a01b038116811462000267578182fd5b809150509250925092565b6002810460018216806200028757607f821691505b60208210811415620002a957634e487b7160e01b600052602260045260246000fd5b50919050565b634e487b7160e01b600052604160045260246000fd5b610f7d80620002d56000396000f3fe608060405234801561001057600080fd5b50600436106100ea5760003560e01c806367dfd4c91161008c578063a457c2d711610066578063a457c2d7146101ce578063a59f3e0c146101e1578063a9059cbb146101f4578063dd62ed3e14610207576100ea565b806367dfd4c91461019e57806370a08231146101b357806395d89b41146101c6576100ea565b806318160ddd116100c857806318160ddd1461015757806323b872dd14610169578063313ce5671461017c578063395093511461018b576100ea565b806305268cff146100ef57806306fdde031461011f578063095ea7b314610134575b600080fd5b600554610102906001600160a01b031681565b6040516001600160a01b0390911681526020015b60405180910390f35b610127610240565b6040516101169190610e35565b610147610142366004610dbc565b6102d2565b6040519015158152602001610116565b6002545b604051908152602001610116565b610147610177366004610d81565b6102ea565b60405160128152602001610116565b610147610199366004610dbc565b61030e565b6101b16101ac366004610e05565b61034d565b005b61015b6101c1366004610d35565b61049e565b6101276104bd565b6101476101dc366004610dbc565b6104cc565b6101b16101ef366004610e05565b61057b565b610147610202366004610dbc565b610699565b61015b610215366004610d4f565b6001600160a01b03918216600090815260016020908152604080832093909416825291909152205490565b60606003805461024f90610ef6565b80601f016020809104026020016040519081016040528092919081815260200182805461027b90610ef6565b80156102c85780601f1061029d576101008083540402835291602001916102c8565b820191906000526020600020905b8154815290600101906020018083116102ab57829003601f168201915b5050505050905090565b6000336102e08185856106a7565b5060019392505050565b6000336102f8858285610800565b61030385858561088c565b506001949350505050565b3360008181526001602090815260408083206001600160a01b03871684529091528120549091906102e09082908690610348908790610e88565b6106a7565b600061035860025490565b6005546040516370a0823160e01b81523060048201529192506000916103ee9184916103e8916001600160a01b0316906370a082319060240160206040518083038186803b1580156103a957600080fd5b505afa1580156103bd573d6000803e3d6000fd5b505050506040513d601f19601f820116820180604052508101906103e19190610e1d565b8690610aa3565b90610ab6565b90506103fa3384610ac2565b6005546040517fa9059cbb000000000000000000000000000000000000000000000000000000008152336004820152602481018390526001600160a01b039091169063a9059cbb906044015b602060405180830381600087803b15801561046057600080fd5b505af1158015610474573d6000803e3d6000fd5b505050506040513d601f19601f820116820180604052508101906104989190610de5565b50505050565b6001600160a01b0381166000908152602081905260409020545b919050565b60606004805461024f90610ef6565b3360008181526001602090815260408083206001600160a01b03871684529091528120549091908381101561056e5760405162461bcd60e51b815260206004820152602560248201527f45524332303a2064656372656173656420616c6c6f77616e63652062656c6f7760448201527f207a65726f00000000000000000000000000000000000000000000000000000060648201526084015b60405180910390fd5b61030382868684036106a7565b6005546040516370a0823160e01b81523060048201526000916001600160a01b0316906370a082319060240160206040518083038186803b1580156105bf57600080fd5b505afa1580156105d3573d6000803e3d6000fd5b505050506040513d601f19601f820116820180604052508101906105f79190610e1d565b9050600061060460025490565b9050801580610611575081155b15610625576106203384610c3f565b610643565b6000610635836103e88685610aa3565b90506106413382610c3f565b505b6005546040517f23b872dd000000000000000000000000000000000000000000000000000000008152336004820152306024820152604481018590526001600160a01b03909116906323b872dd90606401610446565b6000336102e081858561088c565b6001600160a01b0383166107225760405162461bcd60e51b8152602060048201526024808201527f45524332303a20617070726f76652066726f6d20746865207a65726f2061646460448201527f72657373000000000000000000000000000000000000000000000000000000006064820152608401610565565b6001600160a01b03821661079e5760405162461bcd60e51b815260206004820152602260248201527f45524332303a20617070726f766520746f20746865207a65726f20616464726560448201527f73730000000000000000000000000000000000000000000000000000000000006064820152608401610565565b6001600160a01b0383811660008181526001602090815260408083209487168084529482529182902085905590518481527f8c5be1e5ebec7d5bd14f71427d1e84f3dd0314c0f7b2291e5b200ac8c7c3b92591015b60405180910390a3505050565b6001600160a01b038381166000908152600160209081526040808320938616835292905220546000198114610498578181101561087f5760405162461bcd60e51b815260206004820152601d60248201527f45524332303a20696e73756666696369656e7420616c6c6f77616e63650000006044820152606401610565565b61049884848484036106a7565b6001600160a01b0383166109085760405162461bcd60e51b815260206004820152602560248201527f45524332303a207472616e736665722066726f6d20746865207a65726f20616460448201527f64726573730000000000000000000000000000000000000000000000000000006064820152608401610565565b6001600160a01b0382166109845760405162461bcd60e51b815260206004820152602360248201527f45524332303a207472616e7366657220746f20746865207a65726f206164647260448201527f65737300000000000000000000000000000000000000000000000000000000006064820152608401610565565b6001600160a01b03831660009081526020819052604090205481811015610a135760405162461bcd60e51b815260206004820152602660248201527f45524332303a207472616e7366657220616d6f756e742065786365656473206260448201527f616c616e636500000000000000000000000000000000000000000000000000006064820152608401610565565b6001600160a01b03808516600090815260208190526040808220858503905591851681529081208054849290610a4a908490610e88565b92505081905550826001600160a01b0316846001600160a01b03167fddf252ad1be2c89b69c2b068fc378daa952ba7f163c4a11628f55a4df523b3ef84604051610a9691815260200190565b60405180910390a3610498565b6000610aaf8284610ec0565b9392505050565b6000610aaf8284610ea0565b6001600160a01b038216610b3e5760405162461bcd60e51b815260206004820152602160248201527f45524332303a206275726e2066726f6d20746865207a65726f2061646472657360448201527f73000000000000000000000000000000000000000000000000000000000000006064820152608401610565565b6001600160a01b03821660009081526020819052604090205481811015610bcd5760405162461bcd60e51b815260206004820152602260248201527f45524332303a206275726e20616d6f756e7420657863656564732062616c616e60448201527f63650000000000000000000000000000000000000000000000000000000000006064820152608401610565565b6001600160a01b0383166000908152602081905260408120838303905560028054849290610bfc908490610edf565b90915550506040518281526000906001600160a01b038516907fddf252ad1be2c89b69c2b068fc378daa952ba7f163c4a11628f55a4df523b3ef906020016107f3565b6001600160a01b038216610c955760405162461bcd60e51b815260206004820152601f60248201527f45524332303a206d696e7420746f20746865207a65726f2061646472657373006044820152606401610565565b8060026000828254610ca79190610e88565b90915550506001600160a01b03821660009081526020819052604081208054839290610cd4908490610e88565b90915550506040518181526001600160a01b038316906000907fddf252ad1be2c89b69c2b068fc378daa952ba7f163c4a11628f55a4df523b3ef9060200160405180910390a35050565b80356001600160a01b03811681146104b857600080fd5b600060208284031215610d46578081fd5b610aaf82610d1e565b60008060408385031215610d61578081fd5b610d6a83610d1e565b9150610d7860208401610d1e565b90509250929050565b600080600060608486031215610d95578081fd5b610d9e84610d1e565b9250610dac60208501610d1e565b9150604084013590509250925092565b60008060408385031215610dce578182fd5b610dd783610d1e565b946020939093013593505050565b600060208284031215610df6578081fd5b81518015158114610aaf578182fd5b600060208284031215610e16578081fd5b5035919050565b600060208284031215610e2e578081fd5b5051919050565b6000602080835283518082850152825b81811015610e6157858101830151858201604001528201610e45565b81811115610e725783604083870101525b50601f01601f1916929092016040019392505050565b60008219821115610e9b57610e9b610f31565b500190565b600082610ebb57634e487b7160e01b81526012600452602481fd5b500490565b6000816000190483118215151615610eda57610eda610f31565b500290565b600082821015610ef157610ef1610f31565b500390565b600281046001821680610f0a57607f821691505b60208210811415610f2b57634e487b7160e01b600052602260045260246000fd5b50919050565b634e487b7160e01b600052601160045260246000fdfea2646970667358221220fd957461798233fd8e3896bf3e9528a60950aa129709ce93f9915819574c233364736f6c63430008020033",
  "linkReferences": {},
  "deployedLinkReferences": {}
}