{
  "_format": "hh-sol-artifact-1",
  "contractName": "Banker",
  "sourceName": "contracts/Banker.sol",
  "abi": [
    {
      "inputs": [
        {
          "internalType": "address",
          "name": "_factory",
          "type": "address"
        },
        {
          "internalType": "address",
          "name": "_bank",
          "type": "address"
        },
        {
          "internalType": "address",
          "name": "_govToken",
          "type": "address"
        },
        {
          "internalType": "address",
          "name": "_weth",
          "type": "address"
        }
      ],
      "stateMutability": "nonpayable",
      "type": "constructor"
    },
    {
      "anonymous": false,
      "inputs": [
        {
          "indexed": true,
          "internalType": "address",
          "name": "token",
          "type": "address"
        },
        {
          "indexed": true,
          "internalType": "address",
          "name": "bridge",
          "type": "address"
        }
      ],
      "name": "LogBridgeSet",
      "type": "event"
    },
    {
      "anonymous": false,
      "inputs": [
        {
          "indexed": true,
          "internalType": "address",
          "name": "server",
          "type": "address"
        },
        {
          "indexed": true,
          "internalType": "address",
          "name": "token0",
          "type": "address"
        },
        {
          "indexed": true,
          "internalType": "address",
          "name": "token1",
          "type": "address"
        },
        {
          "indexed": false,
          "internalType": "uint256",
          "name": "amount0",
          "type": "uint256"
        },
        {
          "indexed": false,
          "internalType": "uint256",
          "name": "amount1",
          "type": "uint256"
        },
        {
          "indexed": false,
          "internalType": "uint256",
          "name": "amountGovToken",
          "type": "uint256"
        }
      ],
      "name": "LogConvert",
      "type": "event"
    },
    {
      "anonymous": false,
      "inputs": [
        {
          "indexed": true,
          "internalType": "address",
          "name": "previousOwner",
          "type": "address"
        },
        {
          "indexed": true,
          "internalType": "address",
          "name": "newOwner",
          "type": "address"
        }
      ],
      "name": "OwnershipTransferred",
      "type": "event"
    },
    {
      "inputs": [],
      "name": "bank",
      "outputs": [
        {
          "internalType": "address",
          "name": "",
          "type": "address"
        }
      ],
      "stateMutability": "view",
      "type": "function"
    },
    {
      "inputs": [
        {
          "internalType": "address",
          "name": "token",
          "type": "address"
        }
      ],
      "name": "bridgeFor",
      "outputs": [
        {
          "internalType": "address",
          "name": "bridge",
          "type": "address"
        }
      ],
      "stateMutability": "view",
      "type": "function"
    },
    {
      "inputs": [
        {
          "internalType": "address",
          "name": "token0",
          "type": "address"
        },
        {
          "internalType": "address",
          "name": "token1",
          "type": "address"
        }
      ],
      "name": "convert",
      "outputs": [],
      "stateMutability": "nonpayable",
      "type": "function"
    },
    {
      "inputs": [
        {
          "internalType": "address[]",
          "name": "token0",
          "type": "address[]"
        },
        {
          "internalType": "address[]",
          "name": "token1",
          "type": "address[]"
        }
      ],
      "name": "convertMultiple",
      "outputs": [],
      "stateMutability": "nonpayable",
      "type": "function"
    },
    {
      "inputs": [],
      "name": "factory",
      "outputs": [
        {
          "internalType": "contract IUniswapV2Factory",
          "name": "",
          "type": "address"
        }
      ],
      "stateMutability": "view",
      "type": "function"
    },
    {
      "inputs": [],
      "name": "owner",
      "outputs": [
        {
          "internalType": "address",
          "name": "",
          "type": "address"
        }
      ],
      "stateMutability": "view",
      "type": "function"
    },
    {
      "inputs": [],
      "name": "renounceOwnership",
      "outputs": [],
      "stateMutability": "nonpayable",
      "type": "function"
    },
    {
      "inputs": [
        {
          "internalType": "address",
          "name": "token",
          "type": "address"
        },
        {
          "internalType": "address",
          "name": "bridge",
          "type": "address"
        }
      ],
      "name": "setBridge",
      "outputs": [],
      "stateMutability": "nonpayable",
      "type": "function"
    },
    {
      "inputs": [
        {
          "internalType": "address",
          "name": "newOwner",
          "type": "address"
        }
      ],
      "name": "transferOwnership",
      "outputs": [],
      "stateMutability": "nonpayable",
      "type": "function"
    }
  ],
  "bytecode": "0x6101006040523480156200001257600080fd5b5060405162001a8338038062001a838339810160408190526200003591620000dd565b620000403362000070565b6001600160601b0319606094851b811660805292841b831660a05290831b821660c05290911b1660e05262000139565b600080546001600160a01b038381166001600160a01b0319831681178455604051919092169283917f8be0079c531659141344cd1fd0a4f28419497f9722a3daafe3b4186f6b6457e09190a35050565b80516001600160a01b0381168114620000d857600080fd5b919050565b60008060008060808587031215620000f3578384fd5b620000fe85620000c0565b93506200010e60208601620000c0565b92506200011e60408601620000c0565b91506200012e60608601620000c0565b905092959194509250565b60805160601c60a05160601c60c05160601c60e05160601c61186b62000218600039600081816103770152818161049d01528181610ad201528181610b0f01528181610cb401528181610cf101528181610d1a01528181610d4701528181610d840152610dad01526000818161033a01528181610a3c01528181610a8101528181610b6f01528181610bb401528181610c1801528181610c5d0152610f8101526000818160ca01528181610aa301528181610bd601528181610c7f0152610fa30152600081816101570152818161062b0152610fef015261186b6000f3fe608060405234801561001057600080fd5b50600436106100a35760003560e01c80639d22ae8c11610076578063bd1b820c1161005b578063bd1b820c1461013f578063c45a015514610152578063f2fde38b14610179576100a3565b80639d22ae8c14610119578063a761a9391461012c576100a3565b8063303e6aa4146100a8578063715018a6146100bd57806376cdb03b146100c55780638da5cb5b14610108575b600080fd5b6100bb6100b63660046115c3565b61018c565b005b6100bb610278565b6100ec7f000000000000000000000000000000000000000000000000000000000000000081565b6040516001600160a01b03909116815260200160405180910390f35b6000546001600160a01b03166100ec565b6100bb61012736600461158b565b6102de565b6100ec61013a366004611553565b61047a565b6100bb61014d36600461158b565b6104c2565b6100ec7f000000000000000000000000000000000000000000000000000000000000000081565b6100bb610187366004611553565b61051f565b3332146101e05760405162461bcd60e51b815260206004820152601460248201527f42616e6b65723a206d7573742075736520454f4100000000000000000000000060448201526064015b60405180910390fd5b8260005b818110156102705761025e86868381811061020f57634e487b7160e01b600052603260045260246000fd5b90506020020160208101906102249190611553565b85858481811061024457634e487b7160e01b600052603260045260246000fd5b90506020020160208101906102599190611553565b610601565b80610268816117ef565b9150506101e4565b505050505050565b6000546001600160a01b031633146102d25760405162461bcd60e51b815260206004820181905260248201527f4f776e61626c653a2063616c6c6572206973206e6f7420746865206f776e657260448201526064016101d7565b6102dc600061092e565b565b6000546001600160a01b031633146103385760405162461bcd60e51b815260206004820181905260248201527f4f776e61626c653a2063616c6c6572206973206e6f7420746865206f776e657260448201526064016101d7565b7f00000000000000000000000000000000000000000000000000000000000000006001600160a01b0316826001600160a01b0316141580156103ac57507f00000000000000000000000000000000000000000000000000000000000000006001600160a01b0316826001600160a01b031614155b80156103ca5750806001600160a01b0316826001600160a01b031614155b6104165760405162461bcd60e51b815260206004820152601660248201527f42616e6b65723a20496e76616c6964206272696467650000000000000000000060448201526064016101d7565b6001600160a01b03828116600081815260016020526040808220805473ffffffffffffffffffffffffffffffffffffffff19169486169485179055517f2e103aa707acc565f9a1547341914802b2bfe977fd79c595209f248ae4b006139190a35050565b6001600160a01b0380821660009081526001602052604090205416806104bd57507f00000000000000000000000000000000000000000000000000000000000000005b919050565b3332146105115760405162461bcd60e51b815260206004820152601460248201527f42616e6b65723a206d7573742075736520454f4100000000000000000000000060448201526064016101d7565b61051b8282610601565b5050565b6000546001600160a01b031633146105795760405162461bcd60e51b815260206004820181905260248201527f4f776e61626c653a2063616c6c6572206973206e6f7420746865206f776e657260448201526064016101d7565b6001600160a01b0381166105f55760405162461bcd60e51b815260206004820152602660248201527f4f776e61626c653a206e6577206f776e657220697320746865207a65726f206160448201527f646472657373000000000000000000000000000000000000000000000000000060648201526084016101d7565b6105fe8161092e565b50565b60405163e6a4390560e01b81526001600160a01b03838116600483015282811660248301526000917f00000000000000000000000000000000000000000000000000000000000000009091169063e6a439059060440160206040518083038186803b15801561066f57600080fd5b505afa158015610683573d6000803e3d6000fd5b505050506040513d601f19601f820116820180604052508101906106a7919061156f565b90506001600160a01b0381166106ff5760405162461bcd60e51b815260206004820152601460248201527f42616e6b65723a20496e76616c6964207061697200000000000000000000000060448201526064016101d7565b6040517f70a082310000000000000000000000000000000000000000000000000000000081523060048201526107a69082906001600160a01b038216906370a082319060240160206040518083038186803b15801561075d57600080fd5b505afa158015610771573d6000803e3d6000fd5b505050506040513d601f19601f82011682018060405250810190610795919061169a565b6001600160a01b038416919061098b565b6040517f89afcb4400000000000000000000000000000000000000000000000000000000815230600482015260009081906001600160a01b038416906389afcb44906024016040805180830381600087803b15801561080457600080fd5b505af1158015610818573d6000803e3d6000fd5b505050506040513d601f19601f8201168201806040525081019061083c91906116b2565b91509150826001600160a01b0316630dfe16816040518163ffffffff1660e01b815260040160206040518083038186803b15801561087957600080fd5b505afa15801561088d573d6000803e3d6000fd5b505050506040513d601f19601f820116820180604052508101906108b1919061156f565b6001600160a01b0316856001600160a01b0316146108cb57905b6001600160a01b03808516908616337fd06b1d7ed79b664d17472c6f6997b929f1abe463ccccb4e5b6a0038f2f730c1585856109098b8b8484610a10565b6040805193845260208401929092529082015260600160405180910390a45050505050565b600080546001600160a01b0383811673ffffffffffffffffffffffffffffffffffffffff19831681178455604051919092169283917f8be0079c531659141344cd1fd0a4f28419497f9722a3daafe3b4186f6b6457e09190a35050565b604080516001600160a01b038416602482015260448082018490528251808303909101815260649091019091526020810180517bffffffffffffffffffffffffffffffffffffffffffffffffffffffff167fa9059cbb00000000000000000000000000000000000000000000000000000000179052610a0b908490610e81565b505050565b6000836001600160a01b0316856001600160a01b03161415610b6d576000610a388484610f66565b90507f00000000000000000000000000000000000000000000000000000000000000006001600160a01b0316866001600160a01b03161415610ad057610ac86001600160a01b037f0000000000000000000000000000000000000000000000000000000000000000167f00000000000000000000000000000000000000000000000000000000000000008361098b565b809150610b67565b7f00000000000000000000000000000000000000000000000000000000000000006001600160a01b0316866001600160a01b03161415610b3b57610b347f000000000000000000000000000000000000000000000000000000000000000082610f79565b9150610b67565b6000610b468761047a565b9050610b5487828430610fc3565b9150610b638182846000610a10565b9250505b50610e79565b7f00000000000000000000000000000000000000000000000000000000000000006001600160a01b0316856001600160a01b03161415610c1657610bfb6001600160a01b037f0000000000000000000000000000000000000000000000000000000000000000167f00000000000000000000000000000000000000000000000000000000000000008561098b565b610c0f83610c098685610f79565b90610f66565b9050610e79565b7f00000000000000000000000000000000000000000000000000000000000000006001600160a01b0316846001600160a01b03161415610cb257610ca46001600160a01b037f0000000000000000000000000000000000000000000000000000000000000000167f00000000000000000000000000000000000000000000000000000000000000008461098b565b610c0f82610c098786610f79565b7f00000000000000000000000000000000000000000000000000000000000000006001600160a01b0316856001600160a01b03161415610d4557610c0f7f0000000000000000000000000000000000000000000000000000000000000000610d4085610c09887f00000000000000000000000000000000000000000000000000000000000000008830610fc3565b610f79565b7f00000000000000000000000000000000000000000000000000000000000000006001600160a01b0316846001600160a01b03161415610dd357610c0f7f0000000000000000000000000000000000000000000000000000000000000000610d4084610c09897f00000000000000000000000000000000000000000000000000000000000000008930610fc3565b6000610dde8661047a565b90506000610deb8661047a565b9050856001600160a01b0316826001600160a01b03161415610e2557610e1e8287610e188a868a30610fc3565b87610a10565b9250610e76565b866001600160a01b0316816001600160a01b03161415610e5657610e1e878287610e518a868a30610fc3565b610a10565b610e738282610e678a868a30610fc3565b610e518a868a30610fc3565b92505b50505b949350505050565b6000610ed6826040518060400160405280602081526020017f5361666545524332303a206c6f772d6c6576656c2063616c6c206661696c6564815250856001600160a01b03166113609092919063ffffffff16565b805190915015610a0b5780806020019051810190610ef4919061162c565b610a0b5760405162461bcd60e51b815260206004820152602a60248201527f5361666545524332303a204552433230206f7065726174696f6e20646964206e60448201527f6f7420737563636565640000000000000000000000000000000000000000000060648201526084016101d7565b6000610f728284611768565b9392505050565b6000610f72837f0000000000000000000000000000000000000000000000000000000000000000847f00000000000000000000000000000000000000000000000000000000000000005b60405163e6a4390560e01b81526001600160a01b038581166004830152848116602483015260009182917f0000000000000000000000000000000000000000000000000000000000000000169063e6a439059060440160206040518083038186803b15801561103157600080fd5b505afa158015611045573d6000803e3d6000fd5b505050506040513d601f19601f82011682018060405250810190611069919061156f565b90506001600160a01b0381166110c15760405162461bcd60e51b815260206004820152601660248201527f42616e6b65723a2043616e6e6f7420636f6e766572740000000000000000000060448201526064016101d7565b600080826001600160a01b0316630902f1ac6040518163ffffffff1660e01b815260040160606040518083038186803b1580156110fd57600080fd5b505afa158015611111573d6000803e3d6000fd5b505050506040513d601f19601f82011682018060405250810190611135919061164c565b506dffffffffffffffffffffffffffff9182169350169050600061115b876103e561136f565b9050836001600160a01b0316630dfe16816040518163ffffffff1660e01b815260040160206040518083038186803b15801561119657600080fd5b505afa1580156111aa573d6000803e3d6000fd5b505050506040513d601f19601f820116820180604052508101906111ce919061156f565b6001600160a01b0316896001600160a01b031614156112a3576111f781610c09856103e861136f565b61120d836112078a6103e561136f565b9061136f565b6112179190611780565b945061122d6001600160a01b038a16858961098b565b604080516000808252602082019283905263022c0d9f60e01b9092526001600160a01b0386169163022c0d9f9161126c919089908b906024810161171d565b600060405180830381600087803b15801561128657600080fd5b505af115801561129a573d6000803e3d6000fd5b50505050611354565b6112b381610c09846103e861136f565b6112c3846112078a6103e561136f565b6112cd9190611780565b94506112e36001600160a01b038a16858961098b565b604080516000808252602082019283905263022c0d9f60e01b9092526001600160a01b0386169163022c0d9f916113219189918b906024810161171d565b600060405180830381600087803b15801561133b57600080fd5b505af115801561134f573d6000803e3d6000fd5b505050505b50505050949350505050565b6060610e79848460008561137b565b6000610f7282846117a0565b6060824710156113f35760405162461bcd60e51b815260206004820152602660248201527f416464726573733a20696e73756666696369656e742062616c616e636520666f60448201527f722063616c6c000000000000000000000000000000000000000000000000000060648201526084016101d7565b6001600160a01b0385163b61144a5760405162461bcd60e51b815260206004820152601d60248201527f416464726573733a2063616c6c20746f206e6f6e2d636f6e747261637400000060448201526064016101d7565b600080866001600160a01b031685876040516114669190611701565b60006040518083038185875af1925050503d80600081146114a3576040519150601f19603f3d011682016040523d82523d6000602084013e6114a8565b606091505b5091509150610e73828286606083156114c2575081610f72565b8251156114d25782518084602001fd5b8160405162461bcd60e51b81526004016101d79190611755565b60008083601f8401126114fd578182fd5b50813567ffffffffffffffff811115611514578182fd5b602083019150836020808302850101111561152e57600080fd5b9250929050565b80516dffffffffffffffffffffffffffff811681146104bd57600080fd5b600060208284031215611564578081fd5b8135610f7281611820565b600060208284031215611580578081fd5b8151610f7281611820565b6000806040838503121561159d578081fd5b82356115a881611820565b915060208301356115b881611820565b809150509250929050565b600080600080604085870312156115d8578182fd5b843567ffffffffffffffff808211156115ef578384fd5b6115fb888389016114ec565b90965094506020870135915080821115611613578384fd5b50611620878288016114ec565b95989497509550505050565b60006020828403121561163d578081fd5b81518015158114610f72578182fd5b600080600060608486031215611660578283fd5b61166984611535565b925061167760208501611535565b9150604084015163ffffffff8116811461168f578182fd5b809150509250925092565b6000602082840312156116ab578081fd5b5051919050565b600080604083850312156116c4578182fd5b505080516020909101519092909150565b600081518084526116ed8160208601602086016117bf565b601f01601f19169290920160200192915050565b600082516117138184602087016117bf565b9190910192915050565b60008582528460208301526001600160a01b03841660408301526080606083015261174b60808301846116d5565b9695505050505050565b600060208252610f7260208301846116d5565b6000821982111561177b5761177b61180a565b500190565b60008261179b57634e487b7160e01b81526012600452602481fd5b500490565b60008160001904831182151516156117ba576117ba61180a565b500290565b60005b838110156117da5781810151838201526020016117c2565b838111156117e9576000848401525b50505050565b60006000198214156118035761180361180a565b5060010190565b634e487b7160e01b600052601160045260246000fd5b6001600160a01b03811681146105fe57600080fdfea264697066735822122003af60b42854fc724d8e8bb3609fd801e8cf0ed8fa011a3622940b432ef09bc864736f6c63430008020033",
  "linkReferences": {},
  "deployedLinkReferences": {}
}