{
  "_format": "hh-sol-artifact-1",
  "contractName": "JewelToken",
  "sourceName": "contracts/JewelToken.sol",
  "abi": [
    {
      "inputs": [
        {
          "internalType": "string",
          "name": "_name",
          "type": "string"
        },
        {
          "internalType": "string",
          "name": "_symbol",
          "type": "string"
        },
        {
          "internalType": "uint256",
          "name": "cap_",
          "type": "uint256"
        },
        {
          "internalType": "uint256",
          "name": "_manualMintLimit",
          "type": "uint256"
        },
        {
          "internalType": "uint256",
          "name": "_lockFromBlock",
          "type": "uint256"
        },
        {
          "internalType": "uint256",
          "name": "_lockToBlock",
          "type": "uint256"
        }
      ],
      "stateMutability": "nonpayable",
      "type": "constructor"
    },
    {
      "anonymous": false,
      "inputs": [
        {
          "indexed": true,
          "internalType": "address",
          "name": "owner",
          "type": "address"
        },
        {
          "indexed": true,
          "internalType": "address",
          "name": "spender",
          "type": "address"
        },
        {
          "indexed": false,
          "internalType": "uint256",
          "name": "value",
          "type": "uint256"
        }
      ],
      "name": "Approval",
      "type": "event"
    },
    {
      "anonymous": false,
      "inputs": [
        {
          "indexed": true,
          "internalType": "address",
          "name": "delegator",
          "type": "address"
        },
        {
          "indexed": true,
          "internalType": "address",
          "name": "fromDelegate",
          "type": "address"
        },
        {
          "indexed": true,
          "internalType": "address",
          "name": "toDelegate",
          "type": "address"
        }
      ],
      "name": "DelegateChanged",
      "type": "event"
    },
    {
      "anonymous": false,
      "inputs": [
        {
          "indexed": true,
          "internalType": "address",
          "name": "delegate",
          "type": "address"
        },
        {
          "indexed": false,
          "internalType": "uint256",
          "name": "previousBalance",
          "type": "uint256"
        },
        {
          "indexed": false,
          "internalType": "uint256",
          "name": "newBalance",
          "type": "uint256"
        }
      ],
      "name": "DelegateVotesChanged",
      "type": "event"
    },
    {
      "anonymous": false,
      "inputs": [
        {
          "indexed": true,
          "internalType": "address",
          "name": "to",
          "type": "address"
        },
        {
          "indexed": false,
          "internalType": "uint256",
          "name": "value",
          "type": "uint256"
        }
      ],
      "name": "Lock",
      "type": "event"
    },
    {
      "anonymous": false,
      "inputs": [
        {
          "indexed": false,
          "internalType": "uint256",
          "name": "previousRate",
          "type": "uint256"
        },
        {
          "indexed": false,
          "internalType": "uint256",
          "name": "newRate",
          "type": "uint256"
        }
      ],
      "name": "MaxTransferAmountRateUpdated",
      "type": "event"
    },
    {
      "anonymous": false,
      "inputs": [
        {
          "indexed": true,
          "internalType": "address",
          "name": "previousOwner",
          "type": "address"
        },
        {
          "indexed": true,
          "internalType": "address",
          "name": "newOwner",
          "type": "address"
        }
      ],
      "name": "OwnershipTransferred",
      "type": "event"
    },
    {
      "anonymous": false,
      "inputs": [
        {
          "indexed": true,
          "internalType": "address",
          "name": "from",
          "type": "address"
        },
        {
          "indexed": true,
          "internalType": "address",
          "name": "to",
          "type": "address"
        },
        {
          "indexed": false,
          "internalType": "uint256",
          "name": "value",
          "type": "uint256"
        }
      ],
      "name": "Transfer",
      "type": "event"
    },
    {
      "anonymous": false,
      "inputs": [
        {
          "indexed": true,
          "internalType": "address",
          "name": "to",
          "type": "address"
        },
        {
          "indexed": false,
          "internalType": "uint256",
          "name": "value",
          "type": "uint256"
        }
      ],
      "name": "Unlock",
      "type": "event"
    },
    {
      "inputs": [],
      "name": "DELEGATION_TYPEHASH",
      "outputs": [
        {
          "internalType": "bytes32",
          "name": "",
          "type": "bytes32"
        }
      ],
      "stateMutability": "view",
      "type": "function"
    },
    {
      "inputs": [],
      "name": "DOMAIN_TYPEHASH",
      "outputs": [
        {
          "internalType": "bytes32",
          "name": "",
          "type": "bytes32"
        }
      ],
      "stateMutability": "view",
      "type": "function"
    },
    {
      "inputs": [
        {
          "internalType": "address",
          "name": "_toAdd",
          "type": "address"
        }
      ],
      "name": "addAuthorized",
      "outputs": [],
      "stateMutability": "nonpayable",
      "type": "function"
    },
    {
      "inputs": [
        {
          "internalType": "address",
          "name": "owner",
          "type": "address"
        },
        {
          "internalType": "address",
          "name": "spender",
          "type": "address"
        }
      ],
      "name": "allowance",
      "outputs": [
        {
          "internalType": "uint256",
          "name": "",
          "type": "uint256"
        }
      ],
      "stateMutability": "view",
      "type": "function"
    },
    {
      "inputs": [
        {
          "internalType": "address",
          "name": "spender",
          "type": "address"
        },
        {
          "internalType": "uint256",
          "name": "amount",
          "type": "uint256"
        }
      ],
      "name": "approve",
      "outputs": [
        {
          "internalType": "bool",
          "name": "",
          "type": "bool"
        }
      ],
      "stateMutability": "nonpayable",
      "type": "function"
    },
    {
      "inputs": [
        {
          "internalType": "address",
          "name": "",
          "type": "address"
        }
      ],
      "name": "authorized",
      "outputs": [
        {
          "internalType": "bool",
          "name": "",
          "type": "bool"
        }
      ],
      "stateMutability": "view",
      "type": "function"
    },
    {
      "inputs": [
        {
          "internalType": "address",
          "name": "account",
          "type": "address"
        }
      ],
      "name": "balanceOf",
      "outputs": [
        {
          "internalType": "uint256",
          "name": "",
          "type": "uint256"
        }
      ],
      "stateMutability": "view",
      "type": "function"
    },
    {
      "inputs": [
        {
          "internalType": "address",
          "name": "_holder",
          "type": "address"
        }
      ],
      "name": "canUnlockAmount",
      "outputs": [
        {
          "internalType": "uint256",
          "name": "",
          "type": "uint256"
        }
      ],
      "stateMutability": "view",
      "type": "function"
    },
    {
      "inputs": [],
      "name": "cap",
      "outputs": [
        {
          "internalType": "uint256",
          "name": "",
          "type": "uint256"
        }
      ],
      "stateMutability": "view",
      "type": "function"
    },
    {
      "inputs": [
        {
          "internalType": "uint256",
          "name": "_newCap",
          "type": "uint256"
        }
      ],
      "name": "capUpdate",
      "outputs": [],
      "stateMutability": "nonpayable",
      "type": "function"
    },
    {
      "inputs": [
        {
          "internalType": "address",
          "name": "",
          "type": "address"
        },
        {
          "internalType": "uint32",
          "name": "",
          "type": "uint32"
        }
      ],
      "name": "checkpoints",
      "outputs": [
        {
          "internalType": "uint32",
          "name": "fromBlock",
          "type": "uint32"
        },
        {
          "internalType": "uint256",
          "name": "votes",
          "type": "uint256"
        }
      ],
      "stateMutability": "view",
      "type": "function"
    },
    {
      "inputs": [],
      "name": "circulatingSupply",
      "outputs": [
        {
          "internalType": "uint256",
          "name": "",
          "type": "uint256"
        }
      ],
      "stateMutability": "view",
      "type": "function"
    },
    {
      "inputs": [],
      "name": "decimals",
      "outputs": [
        {
          "internalType": "uint8",
          "name": "",
          "type": "uint8"
        }
      ],
      "stateMutability": "view",
      "type": "function"
    },
    {
      "inputs": [
        {
          "internalType": "address",
          "name": "spender",
          "type": "address"
        },
        {
          "internalType": "uint256",
          "name": "subtractedValue",
          "type": "uint256"
        }
      ],
      "name": "decreaseAllowance",
      "outputs": [
        {
          "internalType": "bool",
          "name": "",
          "type": "bool"
        }
      ],
      "stateMutability": "nonpayable",
      "type": "function"
    },
    {
      "inputs": [
        {
          "internalType": "address",
          "name": "delegatee",
          "type": "address"
        }
      ],
      "name": "delegate",
      "outputs": [],
      "stateMutability": "nonpayable",
      "type": "function"
    },
    {
      "inputs": [
        {
          "internalType": "address",
          "name": "delegatee",
          "type": "address"
        },
        {
          "internalType": "uint256",
          "name": "nonce",
          "type": "uint256"
        },
        {
          "internalType": "uint256",
          "name": "expiry",
          "type": "uint256"
        },
        {
          "internalType": "uint8",
          "name": "v",
          "type": "uint8"
        },
        {
          "internalType": "bytes32",
          "name": "r",
          "type": "bytes32"
        },
        {
          "internalType": "bytes32",
          "name": "s",
          "type": "bytes32"
        }
      ],
      "name": "delegateBySig",
      "outputs": [],
      "stateMutability": "nonpayable",
      "type": "function"
    },
    {
      "inputs": [
        {
          "internalType": "address",
          "name": "delegator",
          "type": "address"
        }
      ],
      "name": "delegates",
      "outputs": [
        {
          "internalType": "address",
          "name": "",
          "type": "address"
        }
      ],
      "stateMutability": "view",
      "type": "function"
    },
    {
      "inputs": [
        {
          "internalType": "address",
          "name": "account",
          "type": "address"
        }
      ],
      "name": "getCurrentVotes",
      "outputs": [
        {
          "internalType": "uint256",
          "name": "",
          "type": "uint256"
        }
      ],
      "stateMutability": "view",
      "type": "function"
    },
    {
      "inputs": [
        {
          "internalType": "address",
          "name": "account",
          "type": "address"
        },
        {
          "internalType": "uint256",
          "name": "blockNumber",
          "type": "uint256"
        }
      ],
      "name": "getPriorVotes",
      "outputs": [
        {
          "internalType": "uint256",
          "name": "",
          "type": "uint256"
        }
      ],
      "stateMutability": "view",
      "type": "function"
    },
    {
      "inputs": [
        {
          "internalType": "address",
          "name": "spender",
          "type": "address"
        },
        {
          "internalType": "uint256",
          "name": "addedValue",
          "type": "uint256"
        }
      ],
      "name": "increaseAllowance",
      "outputs": [
        {
          "internalType": "bool",
          "name": "",
          "type": "bool"
        }
      ],
      "stateMutability": "nonpayable",
      "type": "function"
    },
    {
      "inputs": [
        {
          "internalType": "address",
          "name": "_holder",
          "type": "address"
        }
      ],
      "name": "lastUnlockBlock",
      "outputs": [
        {
          "internalType": "uint256",
          "name": "",
          "type": "uint256"
        }
      ],
      "stateMutability": "view",
      "type": "function"
    },
    {
      "inputs": [
        {
          "internalType": "address",
          "name": "_holder",
          "type": "address"
        },
        {
          "internalType": "uint256",
          "name": "_amount",
          "type": "uint256"
        }
      ],
      "name": "lock",
      "outputs": [],
      "stateMutability": "nonpayable",
      "type": "function"
    },
    {
      "inputs": [],
      "name": "lockFromBlock",
      "outputs": [
        {
          "internalType": "uint256",
          "name": "",
          "type": "uint256"
        }
      ],
      "stateMutability": "view",
      "type": "function"
    },
    {
      "inputs": [
        {
          "internalType": "uint256",
          "name": "_newLockFrom",
          "type": "uint256"
        }
      ],
      "name": "lockFromUpdate",
      "outputs": [],
      "stateMutability": "nonpayable",
      "type": "function"
    },
    {
      "inputs": [
        {
          "internalType": "address",
          "name": "_holder",
          "type": "address"
        }
      ],
      "name": "lockOf",
      "outputs": [
        {
          "internalType": "uint256",
          "name": "",
          "type": "uint256"
        }
      ],
      "stateMutability": "view",
      "type": "function"
    },
    {
      "inputs": [],
      "name": "lockToBlock",
      "outputs": [
        {
          "internalType": "uint256",
          "name": "",
          "type": "uint256"
        }
      ],
      "stateMutability": "view",
      "type": "function"
    },
    {
      "inputs": [
        {
          "internalType": "uint256",
          "name": "_newLockTo",
          "type": "uint256"
        }
      ],
      "name": "lockToUpdate",
      "outputs": [],
      "stateMutability": "nonpayable",
      "type": "function"
    },
    {
      "inputs": [],
      "name": "lockedSupply",
      "outputs": [
        {
          "internalType": "uint256",
          "name": "",
          "type": "uint256"
        }
      ],
      "stateMutability": "view",
      "type": "function"
    },
    {
      "inputs": [
        {
          "internalType": "address",
          "name": "_to",
          "type": "address"
        },
        {
          "internalType": "uint256",
          "name": "_amount",
          "type": "uint256"
        }
      ],
      "name": "manualMint",
      "outputs": [],
      "stateMutability": "nonpayable",
      "type": "function"
    },
    {
      "inputs": [],
      "name": "manualMintLimit",
      "outputs": [
        {
          "internalType": "uint256",
          "name": "",
          "type": "uint256"
        }
      ],
      "stateMutability": "view",
      "type": "function"
    },
    {
      "inputs": [],
      "name": "manualMinted",
      "outputs": [
        {
          "internalType": "uint256",
          "name": "",
          "type": "uint256"
        }
      ],
      "stateMutability": "view",
      "type": "function"
    },
    {
      "inputs": [],
      "name": "maxTransferAmount",
      "outputs": [
        {
          "internalType": "uint256",
          "name": "",
          "type": "uint256"
        }
      ],
      "stateMutability": "view",
      "type": "function"
    },
    {
      "inputs": [],
      "name": "maxTransferAmountRate",
      "outputs": [
        {
          "internalType": "uint16",
          "name": "",
          "type": "uint16"
        }
      ],
      "stateMutability": "view",
      "type": "function"
    },
    {
      "inputs": [],
      "name": "miner",
      "outputs": [
        {
          "internalType": "address",
          "name": "",
          "type": "address"
        }
      ],
      "stateMutability": "view",
      "type": "function"
    },
    {
      "inputs": [
        {
          "internalType": "address",
          "name": "_to",
          "type": "address"
        },
        {
          "internalType": "uint256",
          "name": "_amount",
          "type": "uint256"
        }
      ],
      "name": "mint",
      "outputs": [],
      "stateMutability": "nonpayable",
      "type": "function"
    },
    {
      "inputs": [],
      "name": "name",
      "outputs": [
        {
          "internalType": "string",
          "name": "",
          "type": "string"
        }
      ],
      "stateMutability": "view",
      "type": "function"
    },
    {
      "inputs": [
        {
          "internalType": "address",
          "name": "",
          "type": "address"
        }
      ],
      "name": "nonces",
      "outputs": [
        {
          "internalType": "uint256",
          "name": "",
          "type": "uint256"
        }
      ],
      "stateMutability": "view",
      "type": "function"
    },
    {
      "inputs": [
        {
          "internalType": "address",
          "name": "",
          "type": "address"
        }
      ],
      "name": "numCheckpoints",
      "outputs": [
        {
          "internalType": "uint32",
          "name": "",
          "type": "uint32"
        }
      ],
      "stateMutability": "view",
      "type": "function"
    },
    {
      "inputs": [],
      "name": "owner",
      "outputs": [
        {
          "internalType": "address",
          "name": "",
          "type": "address"
        }
      ],
      "stateMutability": "view",
      "type": "function"
    },
    {
      "inputs": [],
      "name": "profileAgeReq",
      "outputs": [
        {
          "internalType": "uint64",
          "name": "",
          "type": "uint64"
        }
      ],
      "stateMutability": "view",
      "type": "function"
    },
    {
      "inputs": [],
      "name": "profilesContract",
      "outputs": [
        {
          "internalType": "contract IProfiles",
          "name": "",
          "type": "address"
        }
      ],
      "stateMutability": "view",
      "type": "function"
    },
    {
      "inputs": [
        {
          "internalType": "address",
          "name": "_toRemove",
          "type": "address"
        }
      ],
      "name": "removeAuthorized",
      "outputs": [],
      "stateMutability": "nonpayable",
      "type": "function"
    },
    {
      "inputs": [],
      "name": "renounceOwnership",
      "outputs": [],
      "stateMutability": "nonpayable",
      "type": "function"
    },
    {
      "inputs": [
        {
          "internalType": "address",
          "name": "_account",
          "type": "address"
        },
        {
          "internalType": "bool",
          "name": "_excluded",
          "type": "bool"
        }
      ],
      "name": "setExcludedFromAntiWhale",
      "outputs": [],
      "stateMutability": "nonpayable",
      "type": "function"
    },
    {
      "inputs": [
        {
          "internalType": "uint64",
          "name": "_age",
          "type": "uint64"
        }
      ],
      "name": "setProfileAgeReq",
      "outputs": [
        {
          "internalType": "bool",
          "name": "success",
          "type": "bool"
        }
      ],
      "stateMutability": "nonpayable",
      "type": "function"
    },
    {
      "inputs": [
        {
          "internalType": "address",
          "name": "_profilesAddress",
          "type": "address"
        }
      ],
      "name": "setProfiles",
      "outputs": [
        {
          "internalType": "bool",
          "name": "success",
          "type": "bool"
        }
      ],
      "stateMutability": "nonpayable",
      "type": "function"
    },
    {
      "inputs": [],
      "name": "symbol",
      "outputs": [
        {
          "internalType": "string",
          "name": "",
          "type": "string"
        }
      ],
      "stateMutability": "view",
      "type": "function"
    },
    {
      "inputs": [
        {
          "internalType": "address",
          "name": "_holder",
          "type": "address"
        }
      ],
      "name": "totalBalanceOf",
      "outputs": [
        {
          "internalType": "uint256",
          "name": "",
          "type": "uint256"
        }
      ],
      "stateMutability": "view",
      "type": "function"
    },
    {
      "inputs": [],
      "name": "totalLock",
      "outputs": [
        {
          "internalType": "uint256",
          "name": "",
          "type": "uint256"
        }
      ],
      "stateMutability": "view",
      "type": "function"
    },
    {
      "inputs": [],
      "name": "totalSupply",
      "outputs": [
        {
          "internalType": "uint256",
          "name": "",
          "type": "uint256"
        }
      ],
      "stateMutability": "view",
      "type": "function"
    },
    {
      "inputs": [
        {
          "internalType": "address",
          "name": "to",
          "type": "address"
        },
        {
          "internalType": "uint256",
          "name": "amount",
          "type": "uint256"
        }
      ],
      "name": "transfer",
      "outputs": [
        {
          "internalType": "bool",
          "name": "",
          "type": "bool"
        }
      ],
      "stateMutability": "nonpayable",
      "type": "function"
    },
    {
      "inputs": [
        {
          "internalType": "address",
          "name": "_to",
          "type": "address"
        }
      ],
      "name": "transferAll",
      "outputs": [],
      "stateMutability": "nonpayable",
      "type": "function"
    },
    {
      "inputs": [
        {
          "internalType": "address",
          "name": "from",
          "type": "address"
        },
        {
          "internalType": "address",
          "name": "to",
          "type": "address"
        },
        {
          "internalType": "uint256",
          "name": "amount",
          "type": "uint256"
        }
      ],
      "name": "transferFrom",
      "outputs": [
        {
          "internalType": "bool",
          "name": "",
          "type": "bool"
        }
      ],
      "stateMutability": "nonpayable",
      "type": "function"
    },
    {
      "inputs": [
        {
          "internalType": "address",
          "name": "newOwner",
          "type": "address"
        }
      ],
      "name": "transferOwnership",
      "outputs": [],
      "stateMutability": "nonpayable",
      "type": "function"
    },
    {
      "inputs": [],
      "name": "unlock",
      "outputs": [],
      "stateMutability": "nonpayable",
      "type": "function"
    },
    {
      "inputs": [
        {
          "internalType": "address",
          "name": "account",
          "type": "address"
        },
        {
          "internalType": "uint256",
          "name": "amount",
          "type": "uint256"
        }
      ],
      "name": "unlockForUser",
      "outputs": [],
      "stateMutability": "nonpayable",
      "type": "function"
    },
    {
      "inputs": [],
      "name": "unlockedSupply",
      "outputs": [
        {
          "internalType": "uint256",
          "name": "",
          "type": "uint256"
        }
      ],
      "stateMutability": "view",
      "type": "function"
    },
    {
      "inputs": [
        {
          "internalType": "uint16",
          "name": "_maxTransferAmountRate",
          "type": "uint16"
        }
      ],
      "name": "updateMaxTransferAmountRate",
      "outputs": [],
      "stateMutability": "nonpayable",
      "type": "function"
    }
  ],
  "bytecode": "0x60806040526000600c55600e8054600160a01b600160e01b03191690556011805461ffff19166127101790553480156200003857600080fd5b5060405162003763380380620037638339810160408190526200005b91620002ca565b8551869086906200007490600390602085019062000171565b5080516200008a90600490602084019062000171565b505050620000a7620000a16200011b60201b60201c565b6200011f565b600793909355600b91909155600955600a55505033600090815260126020526040808220805460ff1990811660019081179092557f7e7fa33969761a458e04f477e039a608702b4f924981d6653935a8319a08ad7b80548216831790553084529190922080549091169091179055620003a9565b3390565b600580546001600160a01b038381166001600160a01b0319831681179093556040519116919082907f8be0079c531659141344cd1fd0a4f28419497f9722a3daafe3b4186f6b6457e090600090a35050565b8280546200017f9062000356565b90600052602060002090601f016020900481019282620001a35760008555620001ee565b82601f10620001be57805160ff1916838001178555620001ee565b82800160010185558215620001ee579182015b82811115620001ee578251825591602001919060010190620001d1565b50620001fc92915062000200565b5090565b5b80821115620001fc576000815560010162000201565b600082601f83011262000228578081fd5b81516001600160401b038082111562000245576200024562000393565b604051601f8301601f19908116603f0116810190828211818310171562000270576200027062000393565b816040528381526020925086838588010111156200028c578485fd5b8491505b83821015620002af578582018301518183018401529082019062000290565b83821115620002c057848385830101525b9695505050505050565b60008060008060008060c08789031215620002e3578182fd5b86516001600160401b0380821115620002fa578384fd5b620003088a838b0162000217565b975060208901519150808211156200031e578384fd5b506200032d89828a0162000217565b95505060408701519350606087015192506080870151915060a087015190509295509295509295565b6002810460018216806200036b57607f821691505b602082108114156200038d57634e487b7160e01b600052602260045260246000fd5b50919050565b634e487b7160e01b600052604160045260246000fd5b6133aa80620003b96000396000f3fe608060405234801561001057600080fd5b506004361061038e5760003560e01c8063782d6fe1116101de578063b91816111161010f578063e4c5ff46116100ad578063f2fde38b1161007c578063f2fde38b146108aa578063f85b84a4146108bd578063f96cbc1c146108c6578063fd3d27b8146108d95761038e565b8063e4c5ff4614610810578063e6b2fb4a14610823578063e7a324dc1461082c578063f1127ed8146108535761038e565b8063c7f59a67116100e9578063c7f59a67146107a9578063ca5c7b91146107bc578063cf1c316a146107c4578063dd62ed3e146107d75761038e565b8063b918161114610760578063c38533c614610783578063c3cda520146107965761038e565b8063a3a7e7f31161017c578063a9059cbb11610156578063a9059cbb1461071f578063a9e7572314610732578063af2b0f661461073a578063b4b5ea571461074d5761038e565b8063a3a7e7f3146106f1578063a457c2d714610704578063a69df4b5146107175761038e565b80638da5cb5b116101b85780638da5cb5b146106c75780638e875e1a146106d85780639358928b146106e157806395d89b41146106e95761038e565b8063782d6fe11461066b5780637ecebe001461067e57806389a2867c1461069e5761038e565b806339509351116102c3578063587cde1e116102615780636a141e2c116102305780636a141e2c146105ec5780636fcfff45146105ff57806370a082311461063a578063715018a6146106635761038e565b8063587cde1e1461057b5780635a46d3b5146105a75780635c19a95c146105d057806366fc237b146105e35761038e565b806340346c491161029d57806340346c491461052f57806340c10f1914610542578063485d7d94146105555780634b0ee02a146105685761038e565b806339509351146104f35780633a1aae35146105065780633ff8bf2e1461050e5761038e565b806320606b7011610330578063313ce5671161030a578063313ce567146104b6578063349dc329146104c5578063355274ea146104d857806336c41a28146104e05761038e565b806320606b701461046957806323b872dd14610490578063282d3fdf146104a35761038e565b80630cb285e21161036c5780630cb285e2146103fb57806318160ddd146104105780631bc5283514610422578063202b1760146104565761038e565b806306428f021461039357806306fdde03146103c3578063095ea7b3146103d8575b600080fd5b600e546103a6906001600160a01b031681565b6040516001600160a01b0390911681526020015b60405180910390f35b6103cb6108e1565b6040516103ba9190613137565b6103eb6103e6366004612f29565b610973565b60405190151581526020016103ba565b61040e610409366004613006565b61098d565b005b6002545b6040519081526020016103ba565b600e5461043d90600160a01b900467ffffffffffffffff1681565b60405167ffffffffffffffff90911681526020016103ba565b610414610464366004612e48565b610a15565b6104147f8cad95687ba82c2ce50e74f7b754645e5117c3a5bec8151c0726d5857980a86681565b6103eb61049e366004612eb8565b610adc565b61040e6104b1366004612f29565b610b00565b604051601281526020016103ba565b600d546103a6906001600160a01b031681565b600754610414565b6103eb6104ee366004612e48565b610d1b565b6103eb610501366004612f29565b610ea6565b600854610414565b60115461051c9061ffff1681565b60405161ffff90911681526020016103ba565b61040e61053d366004613006565b610ee5565b61040e610550366004612f29565b610f68565b61040e610563366004612e48565b610ff5565b610414610576366004612e48565b611086565b6103a6610589366004612e48565b6001600160a01b039081166000908152601360205260409020541690565b6104146105b5366004612e48565b6001600160a01b03166000908152600f602052604090205490565b61040e6105de366004612e48565b6110b2565b61041460095481565b61040e6105fa366004612fe4565b6110bf565b61062561060d366004612e48565b60156020526000908152604090205463ffffffff1681565b60405163ffffffff90911681526020016103ba565b610414610648366004612e48565b6001600160a01b031660009081526020819052604090205490565b61040e6112da565b610414610679366004612f29565b611340565b61041461068c366004612e48565b60166020526000908152604090205481565b6104146106ac366004612e48565b6001600160a01b031660009081526010602052604090205490565b6005546001600160a01b03166103a6565b610414600a5481565b6104146115bb565b6103cb6115cb565b61040e6106ff366004612e48565b6115da565b6103eb610712366004612f29565b6116cb565b61040e611775565b6103eb61072d366004612f29565b61178c565b61041461179a565b61040e610748366004612f29565b6117c5565b61041461075b366004612e48565b61186f565b6103eb61076e366004612e48565b60066020526000908152604090205460ff1681565b61040e610791366004613006565b6118e4565b61040e6107a4366004612f54565b611967565b61040e6107b7366004612ef8565b611c99565b610414611d42565b61040e6107d2366004612e48565b611d4d565b6104146107e5366004612e80565b6001600160a01b03918216600090815260016020908152604080832093909416825291909152205490565b61040e61081e366004612f29565b611dcb565b610414600c5481565b6104147fe48329057bfd03d55e49b547132e39cffd9c1820ad7b9d4c5307691425d15adf81565b61088e610861366004612faf565b60146020908152600092835260408084209091529082529020805460019091015463ffffffff9091169082565b6040805163ffffffff90931683526020830191909152016103ba565b61040e6108b8366004612e48565b611f06565b610414600b5481565b6103eb6108d436600461311b565b611fe5565b6104146120a7565b6060600380546108f090613268565b80601f016020809104026020016040519081016040528092919081815260200182805461091c90613268565b80156109695780601f1061093e57610100808354040283529160200191610969565b820191906000526020600020905b81548152906001019060200180831161094c57829003601f168201915b5050505050905090565b6000336109818185856120bf565b60019150505b92915050565b3360009081526006602052604090205460ff16806109c45750336109b96005546001600160a01b031690565b6001600160a01b0316145b610a105760405162461bcd60e51b815260206004820152601860248201527718d85b1b195c881a5cc81b9bdd08185d5d1a1bdc9a5e995960421b60448201526064015b60405180910390fd5b600a55565b6000600954431015610a2957506000610ad7565b600a544310610a5157506001600160a01b0381166000908152600f6020526040902054610ad7565b6001600160a01b038216600090815260106020526040812054610a749043613200565b6001600160a01b038416600090815260106020526040812054600a549293509091610a9f9190613200565b6001600160a01b0385166000908152600f60205260409020549091508190610ac89084906131e1565b610ad291906131aa565b925050505b919050565b600033610aea858285612217565b610af58585856122a9565b506001949350505050565b3360009081526006602052604090205460ff1680610b37575033610b2c6005546001600160a01b031690565b6001600160a01b0316145b610b7e5760405162461bcd60e51b815260206004820152601860248201527718d85b1b195c881a5cc81b9bdd08185d5d1a1bdc9a5e995960421b6044820152606401610a07565b6001600160a01b038216610bd45760405162461bcd60e51b815260206004820152601f60248201527f43616e6e6f74206c6f636b20746f20746865207a65726f2061646472657373006044820152606401610a07565b6001600160a01b038216600090815260208190526040902054811115610c3c5760405162461bcd60e51b815260206004820152601860248201527f4c6f636b20616d6f756e74206f7665722062616c616e636500000000000000006044820152606401610a07565b610c478230836122a9565b6001600160a01b0382166000908152600f6020526040902054610c6b90829061316a565b6001600160a01b0383166000908152600f6020526040902055600854610c9290829061316a565b6008556009546001600160a01b0383166000908152601060205260409020541015610cd4576009546001600160a01b0383166000908152601060205260409020555b816001600160a01b03167f625fed9875dada8643f2418b838ae0bc78d9a148a18eee4ee1979ff0f3f5d42782604051610d0f91815260200190565b60405180910390a25050565b3360009081526006602052604081205460ff1680610d52575033610d476005546001600160a01b031690565b6001600160a01b0316145b610d995760405162461bcd60e51b815260206004820152601860248201527718d85b1b195c881a5cc81b9bdd08185d5d1a1bdc9a5e995960421b6044820152606401610a07565b600082905060006001600160a01b0316816001600160a01b031663b5708ccc6040518163ffffffff1660e01b815260040160206040518083038186803b158015610de257600080fd5b505afa158015610df6573d6000803e3d6000fd5b505050506040513d601f19601f82011682018060405250810190610e1a9190612e64565b6001600160a01b03161415610e715760405162461bcd60e51b815260206004820152600760248201527f696e76616c6964000000000000000000000000000000000000000000000000006044820152606401610a07565b600e805473ffffffffffffffffffffffffffffffffffffffff19166001600160a01b0392909216919091179055506001919050565b3360008181526001602090815260408083206001600160a01b03871684529091528120549091906109819082908690610ee090879061316a565b6120bf565b3360009081526006602052604090205460ff1680610f1c575033610f116005546001600160a01b031690565b6001600160a01b0316145b610f635760405162461bcd60e51b815260206004820152601860248201527718d85b1b195c881a5cc81b9bdd08185d5d1a1bdc9a5e995960421b6044820152606401610a07565b600755565b6005546001600160a01b03163314610fc25760405162461bcd60e51b815260206004820181905260248201527f4f776e61626c653a2063616c6c6572206973206e6f7420746865206f776e65726044820152606401610a07565b610fcc8282612530565b6001600160a01b03808316600090815260136020526040812054610ff192168361261c565b5050565b6005546001600160a01b0316331461104f5760405162461bcd60e51b815260206004820181905260248201527f4f776e61626c653a2063616c6c6572206973206e6f7420746865206f776e65726044820152606401610a07565b6001600160a01b03811633141561106557600080fd5b6001600160a01b03166000908152600660205260409020805460ff19169055565b6001600160a01b03811660009081526020818152604080832054600f909252822054610987919061316a565b6110bc338261277b565b50565b3360009081526006602052604090205460ff16806110f65750336110eb6005546001600160a01b031690565b6001600160a01b0316145b61113d5760405162461bcd60e51b815260206004820152601860248201527718d85b1b195c881a5cc81b9bdd08185d5d1a1bdc9a5e995960421b6044820152606401610a07565b6127108161ffff1611156111df5760405162461bcd60e51b815260206004820152605760248201527f7570646174654d61785472616e73666572416d6f756e74526174653a204d617860448201527f207472616e7366657220616d6f756e742072617465206d757374206e6f74206560648201527f786365656420746865206d6178696d756d20726174652e000000000000000000608482015260a401610a07565b60328161ffff1610156112805760405162461bcd60e51b815260206004820152604e60248201527f7570646174654d61785472616e73666572416d6f756e74526174653a204d617860448201527f207472616e7366657220616d6f756e742072617465206d757374206265206d6f60648201527f7265207468616e20302e3030352e000000000000000000000000000000000000608482015260a401610a07565b6011546040805161ffff928316815291831660208301527fff6316521befb2f41341a167cc0af9a05541f2b9d73de40cba35c37d34e87e6f910160405180910390a16011805461ffff191661ffff92909216919091179055565b6005546001600160a01b031633146113345760405162461bcd60e51b815260206004820181905260248201527f4f776e61626c653a2063616c6c6572206973206e6f7420746865206f776e65726044820152606401610a07565b61133e6000612801565b565b60004382106113b75760405162461bcd60e51b815260206004820152602d60248201527f4a6577656c546f6b656e3a3a6765745072696f72566f7465733a206e6f74207960448201527f65742064657465726d696e6564000000000000000000000000000000000000006064820152608401610a07565b6001600160a01b03831660009081526015602052604090205463ffffffff16806113e5576000915050610987565b6001600160a01b0384166000908152601460205260408120849161140a600185613217565b63ffffffff90811682526020820192909252604001600020541611611473576001600160a01b03841660009081526014602052604081209061144d600184613217565b63ffffffff1663ffffffff16815260200190815260200160002060010154915050610987565b6001600160a01b038416600090815260146020908152604080832083805290915290205463ffffffff168310156114ae576000915050610987565b6000806114bc600184613217565b90505b8163ffffffff168163ffffffff16111561158457600060026114e18484613217565b6114eb91906131be565b6114f59083613217565b6001600160a01b038816600090815260146020908152604080832063ffffffff8086168552908352928190208151808301909252805490931680825260019093015491810191909152919250871415611558576020015194506109879350505050565b805163ffffffff1687111561156f5781935061157d565b61157a600183613217565b92505b50506114bf565b506001600160a01b038516600090815260146020908152604080832063ffffffff9094168352929052206001015491505092915050565b60006115c660025490565b905090565b6060600480546108f090613268565b336000908152600f6020526040808220546001600160a01b0384168352912054611604919061316a565b6001600160a01b0382166000908152600f60209081526040808320939093556009546010909152919020541015611652576009546001600160a01b0382166000908152601060205260409020555b33600090815260106020526040808220546001600160a01b038416835291205410156116995733600090815260106020526040808220546001600160a01b03841683529120555b336000818152600f6020908152604080832083905560108252808320839055908290529020546110bc919083906122a9565b3360008181526001602090815260408083206001600160a01b0387168452909152812054909190838110156117685760405162461bcd60e51b815260206004820152602560248201527f45524332303a2064656372656173656420616c6c6f77616e63652062656c6f7760448201527f207a65726f0000000000000000000000000000000000000000000000000000006064820152608401610a07565b610af582868684036120bf565b600061178033610a15565b90506110bc3382612860565b6000336109818185856122a9565b6011546000906127109061ffff166117b160025490565b6117bb91906131e1565b6115c691906131aa565b3360009081526006602052604090205460ff16806117fc5750336117f16005546001600160a01b031690565b6001600160a01b0316145b6118435760405162461bcd60e51b815260206004820152601860248201527718d85b1b195c881a5cc81b9bdd08185d5d1a1bdc9a5e995960421b6044820152606401610a07565b600061184e83610a15565b90508015611860576118608382612860565b61186a8383612860565b505050565b6001600160a01b03811660009081526015602052604081205463ffffffff168061189a5760006118dd565b6001600160a01b0383166000908152601460205260408120906118be600184613217565b63ffffffff1663ffffffff168152602001908152602001600020600101545b9392505050565b3360009081526006602052604090205460ff168061191b5750336119106005546001600160a01b031690565b6001600160a01b0316145b6119625760405162461bcd60e51b815260206004820152601860248201527718d85b1b195c881a5cc81b9bdd08185d5d1a1bdc9a5e995960421b6044820152606401610a07565b600955565b60007f8cad95687ba82c2ce50e74f7b754645e5117c3a5bec8151c0726d5857980a8666119926108e1565b805190602001206119a04690565b60408051602080820195909552808201939093526060830191909152306080808401919091528151808403909101815260a0830182528051908401207fe48329057bfd03d55e49b547132e39cffd9c1820ad7b9d4c5307691425d15adf60c08401526001600160a01b038b1660e084015261010083018a90526101208084018a9052825180850390910181526101408401909252815191909301207f1901000000000000000000000000000000000000000000000000000000000000610160830152610162820183905261018282018190529192506000906101a20160408051601f198184030181528282528051602091820120600080855291840180845281905260ff8a169284019290925260608301889052608083018790529092509060019060a0016020604051602081039080840390855afa158015611ae7573d6000803e3d6000fd5b5050604051601f1901519150506001600160a01b038116611b705760405162461bcd60e51b815260206004820152602c60248201527f4a6577656c546f6b656e3a3a64656c656761746542795369673a20696e76616c60448201527f6964207369676e617475726500000000000000000000000000000000000000006064820152608401610a07565b6001600160a01b0381166000908152601660205260408120805491611b94836132a3565b919050558914611c0c5760405162461bcd60e51b815260206004820152602860248201527f4a6577656c546f6b656e3a3a64656c656761746542795369673a20696e76616c60448201527f6964206e6f6e63650000000000000000000000000000000000000000000000006064820152608401610a07565b87421115611c825760405162461bcd60e51b815260206004820152602c60248201527f4a6577656c546f6b656e3a3a64656c656761746542795369673a207369676e6160448201527f74757265206578706972656400000000000000000000000000000000000000006064820152608401610a07565b611c8c818b61277b565b505050505b505050505050565b3360009081526006602052604090205460ff1680611cd0575033611cc56005546001600160a01b031690565b6001600160a01b0316145b611d175760405162461bcd60e51b815260206004820152601860248201527718d85b1b195c881a5cc81b9bdd08185d5d1a1bdc9a5e995960421b6044820152606401610a07565b6001600160a01b03919091166000908152601260205260409020805460ff1916911515919091179055565b60006115c660085490565b6005546001600160a01b03163314611da75760405162461bcd60e51b815260206004820181905260248201527f4f776e61626c653a2063616c6c6572206973206e6f7420746865206f776e65726044820152606401610a07565b6001600160a01b03166000908152600660205260409020805460ff19166001179055565b3360009081526006602052604090205460ff1680611e02575033611df76005546001600160a01b031690565b6001600160a01b0316145b611e495760405162461bcd60e51b815260206004820152601860248201527718d85b1b195c881a5cc81b9bdd08185d5d1a1bdc9a5e995960421b6044820152606401610a07565b600b54600c5410611ec25760405162461bcd60e51b815260206004820152603060248201527f45524332303a206d616e75616c4d696e7465642067726561746572207468616e60448201527f206d616e75616c4d696e744c696d6974000000000000000000000000000000006064820152608401610a07565b611ecc8282612530565b6001600160a01b03808316600090815260136020526040812054611ef192168361261c565b80600c54611eff919061316a565b600c555050565b6005546001600160a01b03163314611f605760405162461bcd60e51b815260206004820181905260248201527f4f776e61626c653a2063616c6c6572206973206e6f7420746865206f776e65726044820152606401610a07565b6001600160a01b038116611fdc5760405162461bcd60e51b815260206004820152602660248201527f4f776e61626c653a206e6577206f776e657220697320746865207a65726f206160448201527f64647265737300000000000000000000000000000000000000000000000000006064820152608401610a07565b6110bc81612801565b3360009081526006602052604081205460ff168061201c5750336120116005546001600160a01b031690565b6001600160a01b0316145b6120635760405162461bcd60e51b815260206004820152601860248201527718d85b1b195c881a5cc81b9bdd08185d5d1a1bdc9a5e995960421b6044820152606401610a07565b50600e805467ffffffffffffffff8316600160a01b027fffffffff0000000000000000ffffffffffffffffffffffffffffffffffffffff9091161790556001919050565b60006008546120b560025490565b6115c69190613200565b6001600160a01b03831661213a5760405162461bcd60e51b8152602060048201526024808201527f45524332303a20617070726f76652066726f6d20746865207a65726f2061646460448201527f72657373000000000000000000000000000000000000000000000000000000006064820152608401610a07565b6001600160a01b0382166121b65760405162461bcd60e51b815260206004820152602260248201527f45524332303a20617070726f766520746f20746865207a65726f20616464726560448201527f73730000000000000000000000000000000000000000000000000000000000006064820152608401610a07565b6001600160a01b0383811660008181526001602090815260408083209487168084529482529182902085905590518481527f8c5be1e5ebec7d5bd14f71427d1e84f3dd0314c0f7b2291e5b200ac8c7c3b925910160405180910390a3505050565b6001600160a01b0383811660009081526001602090815260408083209386168352929052205460001981146122a357818110156122965760405162461bcd60e51b815260206004820152601d60248201527f45524332303a20696e73756666696369656e7420616c6c6f77616e63650000006044820152606401610a07565b6122a384848484036120bf565b50505050565b82828260006122b661179a565b1115612380576001600160a01b03831660009081526012602052604090205460ff161580156122fe57506001600160a01b03821660009081526012602052604090205460ff16155b156123805761230b61179a565b8111156123805760405162461bcd60e51b815260206004820152603860248201527f616e74695768616c653a205472616e7366657220616d6f756e7420657863656560448201527f647320746865206d61785472616e73666572416d6f756e7400000000000000006064820152608401610a07565b600e5486908690600160a01b900467ffffffffffffffff16156124e9576001600160a01b03811660009081526012602052604090205460ff166124e957600e546040517f4cd6959c0000000000000000000000000000000000000000000000000000000081526001600160a01b0383811660048301526000921690634cd6959c9060240160006040518083038186803b15801561241c57600080fd5b505afa158015612430573d6000803e3d6000fd5b505050506040513d6000823e601f3d908101601f19168201604052612458919081019061301e565b5091955050505067ffffffffffffffff83161580159250905061249b5750600e5467ffffffffffffffff600160a01b90910481169061249990831642613200565b115b6124e75760405162461bcd60e51b815260206004820152601660248201527f70726f66696c65206e6f74206f6c6420656e6f756768000000000000000000006044820152606401610a07565b505b6124f48888886129cb565b6001600160a01b03808916600090815260136020526040808220548a841683529120546125269291821691168861261c565b5050505050505050565b6001600160a01b0382166125865760405162461bcd60e51b815260206004820152601f60248201527f45524332303a206d696e7420746f20746865207a65726f2061646472657373006044820152606401610a07565b61259260008383612bed565b80600260008282546125a4919061316a565b90915550506001600160a01b038216600090815260208190526040812080548392906125d190849061316a565b90915550506040518181526001600160a01b038316906000907fddf252ad1be2c89b69c2b068fc378daa952ba7f163c4a11628f55a4df523b3ef9060200160405180910390a3610ff1565b816001600160a01b0316836001600160a01b03161415801561263e5750600081115b1561186a576001600160a01b038316156126e1576001600160a01b03831660009081526015602052604081205463ffffffff16908161267e5760006126c1565b6001600160a01b0385166000908152601460205260408120906126a2600185613217565b63ffffffff1663ffffffff168152602001908152602001600020600101545b905060006126cf8483613200565b90506126dd86848484612c60565b5050505b6001600160a01b0382161561186a576001600160a01b03821660009081526015602052604081205463ffffffff16908161271c57600061275f565b6001600160a01b038416600090815260146020526040812090612740600185613217565b63ffffffff1663ffffffff168152602001908152602001600020600101545b9050600061276d8483613200565b9050611c9185848484612c60565b6001600160a01b0382811660008181526013602081815260408084208054858452828620549490935287871673ffffffffffffffffffffffffffffffffffffffff198416811790915590519190951694919391928592917f3134e8a2e6d97e929a7e54011ea5485d7d196dd5f0ba4d4ef95803e8e3fc257f9190a46122a382848361261c565b600580546001600160a01b0383811673ffffffffffffffffffffffffffffffffffffffff19831681179093556040519116919082907f8be0079c531659141344cd1fd0a4f28419497f9722a3daafe3b4186f6b6457e090600090a35050565b6001600160a01b0382166000908152600f60205260409020546128c55760405162461bcd60e51b815260206004820152601a60248201527f496e73756666696369656e74206c6f636b656420746f6b656e730000000000006044820152606401610a07565b6001600160a01b0382166000908152600f602052604090205481111561290057506001600160a01b0381166000908152600f60205260409020545b306000908152602081905260409020548111156129295750306000908152602081905260409020545b6129343083836122a9565b6001600160a01b0382166000908152600f6020526040902054612958908290613200565b6001600160a01b0383166000908152600f6020908152604080832093909355601090522043905560085461298d908290613200565b6008556040518181526001600160a01b038316907f6381d9813cabeb57471b5a7e05078e64845ccdb563146a6911d536f24ce960f190602001610d0f565b6001600160a01b038316612a475760405162461bcd60e51b815260206004820152602560248201527f45524332303a207472616e736665722066726f6d20746865207a65726f20616460448201527f64726573730000000000000000000000000000000000000000000000000000006064820152608401610a07565b6001600160a01b038216612ac35760405162461bcd60e51b815260206004820152602360248201527f45524332303a207472616e7366657220746f20746865207a65726f206164647260448201527f65737300000000000000000000000000000000000000000000000000000000006064820152608401610a07565b612ace838383612bed565b6001600160a01b03831660009081526020819052604090205481811015612b5d5760405162461bcd60e51b815260206004820152602660248201527f45524332303a207472616e7366657220616d6f756e742065786365656473206260448201527f616c616e636500000000000000000000000000000000000000000000000000006064820152608401610a07565b6001600160a01b03808516600090815260208190526040808220858503905591851681529081208054849290612b9490849061316a565b92505081905550826001600160a01b0316846001600160a01b03167fddf252ad1be2c89b69c2b068fc378daa952ba7f163c4a11628f55a4df523b3ef84604051612be091815260200190565b60405180910390a36122a3565b6001600160a01b03831661186a5760075481612c0860025490565b612c12919061316a565b111561186a5760405162461bcd60e51b815260206004820152601960248201527f45524332304361707065643a20636170206578636565646564000000000000006044820152606401610a07565b6000612c84436040518060600160405280603a815260200161333b603a9139612e02565b905060008463ffffffff16118015612cde57506001600160a01b038516600090815260146020526040812063ffffffff831691612cc2600188613217565b63ffffffff908116825260208201929092526040016000205416145b15612d27576001600160a01b03851660009081526014602052604081208391612d08600188613217565b63ffffffff168152602081019190915260400160002060010155612db7565b60408051808201825263ffffffff838116825260208083018681526001600160a01b038a166000908152601483528581208a851682529092529390209151825463ffffffff191691161781559051600191820155612d86908590613182565b6001600160a01b0386166000908152601560205260409020805463ffffffff191663ffffffff929092169190911790555b60408051848152602081018490526001600160a01b038716917fdec2bacdd2f05b59de34da9b523dff8be42e5e38e818c82fdb0bae774387a724910160405180910390a25050505050565b6000816401000000008410612e2a5760405162461bcd60e51b8152600401610a079190613137565b509192915050565b8051610ad781613315565b8051610ad78161332b565b600060208284031215612e59578081fd5b81356118dd81613300565b600060208284031215612e75578081fd5b81516118dd81613300565b60008060408385031215612e92578081fd5b8235612e9d81613300565b91506020830135612ead81613300565b809150509250929050565b600080600060608486031215612ecc578081fd5b8335612ed781613300565b92506020840135612ee781613300565b929592945050506040919091013590565b60008060408385031215612f0a578182fd5b8235612f1581613300565b915060208301358015158114612ead578182fd5b60008060408385031215612f3b578182fd5b8235612f4681613300565b946020939093013593505050565b60008060008060008060c08789031215612f6c578182fd5b8635612f7781613300565b955060208701359450604087013593506060870135612f958161332b565b9598949750929560808101359460a0909101359350915050565b60008060408385031215612fc1578182fd5b8235612fcc81613300565b9150602083013563ffffffff81168114612ead578182fd5b600060208284031215612ff5578081fd5b813561ffff811681146118dd578182fd5b600060208284031215613017578081fd5b5035919050565b600080600080600080600060e0888a031215613038578081fd5b87519650602088015161304a81613300565b604089015190965067ffffffffffffffff80821115613067578283fd5b818a0191508a601f83011261307a578283fd5b81518181111561308c5761308c6132ea565b604051601f8201601f19908116603f011681019083821181831017156130b4576130b46132ea565b816040528281528d60208487010111156130cc578586fd5b6130dd83602083016020880161323c565b80995050505050506130f160608901612e32565b93506130ff60808901612e3d565b925060a0880151915060c0880151905092959891949750929550565b60006020828403121561312c578081fd5b81356118dd81613315565b600060208252825180602084015261315681604085016020870161323c565b601f01601f19169190910160400192915050565b6000821982111561317d5761317d6132be565b500190565b600063ffffffff8083168185168083038211156131a1576131a16132be565b01949350505050565b6000826131b9576131b96132d4565b500490565b600063ffffffff808416806131d5576131d56132d4565b92169190910492915050565b60008160001904831182151516156131fb576131fb6132be565b500290565b600082821015613212576132126132be565b500390565b600063ffffffff83811690831681811015613234576132346132be565b039392505050565b60005b8381101561325757818101518382015260200161323f565b838111156122a35750506000910152565b60028104600182168061327c57607f821691505b6020821081141561329d57634e487b7160e01b600052602260045260246000fd5b50919050565b60006000198214156132b7576132b76132be565b5060010190565b634e487b7160e01b600052601160045260246000fd5b634e487b7160e01b600052601260045260246000fd5b634e487b7160e01b600052604160045260246000fd5b6001600160a01b03811681146110bc57600080fd5b67ffffffffffffffff811681146110bc57600080fd5b60ff811681146110bc57600080fdfe4a6577656c546f6b656e3a3a5f7772697465436865636b706f696e743a20626c6f636b206e756d62657220657863656564732033322062697473a2646970667358221220ef9fff1955bcecb9cf224bf290990cc5af77dc9b435252572f5a4aa6c5cc52ec64736f6c63430008020033",
  "linkReferences": {},
  "deployedLinkReferences": {}
}