{
  "_format": "hh-sol-artifact-1",
  "contractName": "UniswapV2Factory",
  "sourceName": "contracts/uniswapv2/UniswapV2Factory.sol",
  "abi": [
    {
      "inputs": [
        {
          "internalType": "address",
          "name": "_feeToSetter",
          "type": "address"
        }
      ],
      "stateMutability": "nonpayable",
      "type": "constructor"
    },
    {
      "anonymous": false,
      "inputs": [
        {
          "indexed": true,
          "internalType": "address",
          "name": "token0",
          "type": "address"
        },
        {
          "indexed": true,
          "internalType": "address",
          "name": "token1",
          "type": "address"
        },
        {
          "indexed": false,
          "internalType": "address",
          "name": "pair",
          "type": "address"
        },
        {
          "indexed": false,
          "internalType": "uint256",
          "name": "",
          "type": "uint256"
        }
      ],
      "name": "PairCreated",
      "type": "event"
    },
    {
      "inputs": [
        {
          "internalType": "uint256",
          "name": "",
          "type": "uint256"
        }
      ],
      "name": "allPairs",
      "outputs": [
        {
          "internalType": "address",
          "name": "",
          "type": "address"
        }
      ],
      "stateMutability": "view",
      "type": "function"
    },
    {
      "inputs": [],
      "name": "allPairsLength",
      "outputs": [
        {
          "internalType": "uint256",
          "name": "",
          "type": "uint256"
        }
      ],
      "stateMutability": "view",
      "type": "function"
    },
    {
      "inputs": [
        {
          "internalType": "address",
          "name": "tokenA",
          "type": "address"
        },
        {
          "internalType": "address",
          "name": "tokenB",
          "type": "address"
        }
      ],
      "name": "createPair",
      "outputs": [
        {
          "internalType": "address",
          "name": "pair",
          "type": "address"
        }
      ],
      "stateMutability": "nonpayable",
      "type": "function"
    },
    {
      "inputs": [],
      "name": "feeTo",
      "outputs": [
        {
          "internalType": "address",
          "name": "",
          "type": "address"
        }
      ],
      "stateMutability": "view",
      "type": "function"
    },
    {
      "inputs": [],
      "name": "feeToSetter",
      "outputs": [
        {
          "internalType": "address",
          "name": "",
          "type": "address"
        }
      ],
      "stateMutability": "view",
      "type": "function"
    },
    {
      "inputs": [
        {
          "internalType": "address",
          "name": "",
          "type": "address"
        },
        {
          "internalType": "address",
          "name": "",
          "type": "address"
        }
      ],
      "name": "getPair",
      "outputs": [
        {
          "internalType": "address",
          "name": "",
          "type": "address"
        }
      ],
      "stateMutability": "view",
      "type": "function"
    },
    {
      "inputs": [],
      "name": "pairCodeHash",
      "outputs": [
        {
          "internalType": "bytes32",
          "name": "",
          "type": "bytes32"
        }
      ],
      "stateMutability": "pure",
      "type": "function"
    },
    {
      "inputs": [
        {
          "internalType": "address",
          "name": "_feeTo",
          "type": "address"
        }
      ],
      "name": "setFeeTo",
      "outputs": [],
      "stateMutability": "nonpayable",
      "type": "function"
    },
    {
      "inputs": [
        {
          "internalType": "address",
          "name": "_feeToSetter",
          "type": "address"
        }
      ],
      "name": "setFeeToSetter",
      "outputs": [],
      "stateMutability": "nonpayable",
      "type": "function"
    }
  ],
  "bytecode": "0x608060405234801561001057600080fd5b50604051612d36380380612d3683398101604081905261002f91610054565b600180546001600160a01b0319166001600160a01b0392909216919091179055610082565b600060208284031215610065578081fd5b81516001600160a01b038116811461007b578182fd5b9392505050565b612ca5806100916000396000f3fe608060405234801561001057600080fd5b50600436106100a35760003560e01c80639aab924811610076578063c9c653961161005b578063c9c653961461012d578063e6a4390514610140578063f46901ed14610174576100a3565b80639aab924814610110578063a2e74af614610118576100a3565b8063017e7e58146100a8578063094b7415146100d85780631e3dd18b146100eb578063574f2ba3146100fe575b600080fd5b6000546100bb906001600160a01b031681565b6040516001600160a01b0390911681526020015b60405180910390f35b6001546100bb906001600160a01b031681565b6100bb6100f93660046106a2565b610187565b6003545b6040519081526020016100cf565b6101026101b1565b61012b61012636600461064f565b6101e3565b005b6100bb61013b366004610670565b610271565b6100bb61014e366004610670565b60026020908152600092835260408084209091529082529020546001600160a01b031681565b61012b61018236600461064f565b61059d565b6003818154811061019757600080fd5b6000918252602090912001546001600160a01b0316905081565b6000604051806020016101c390610626565b6020820181038252601f19601f8201166040525080519060200120905090565b6001546001600160a01b031633146102425760405162461bcd60e51b815260206004820152601460248201527f556e697377617056323a20464f5242494444454e00000000000000000000000060448201526064015b60405180910390fd5b6001805473ffffffffffffffffffffffffffffffffffffffff19166001600160a01b0392909216919091179055565b6000816001600160a01b0316836001600160a01b031614156102d55760405162461bcd60e51b815260206004820152601e60248201527f556e697377617056323a204944454e544943414c5f41444452455353455300006044820152606401610239565b600080836001600160a01b0316856001600160a01b0316106102f85783856102fb565b84845b90925090506001600160a01b0382166103565760405162461bcd60e51b815260206004820152601760248201527f556e697377617056323a205a45524f5f414444524553530000000000000000006044820152606401610239565b6001600160a01b038281166000908152600260209081526040808320858516845290915290205416156103cb5760405162461bcd60e51b815260206004820152601660248201527f556e697377617056323a20504149525f455849535453000000000000000000006044820152606401610239565b6000604051806020016103dd90610626565b601f1982820381018352601f9091011660408190526bffffffffffffffffffffffff19606086811b8216602084015285901b166034820152909150600090604801604051602081830303815290604052805190602001209050808251602084016000f56040517f485cc9550000000000000000000000000000000000000000000000000000000081526001600160a01b03868116600483015285811660248301529196509086169063485cc95590604401600060405180830381600087803b1580156104a857600080fd5b505af11580156104bc573d6000803e3d6000fd5b505050506001600160a01b0384811660008181526002602081815260408084208987168086529083528185208054978d1673ffffffffffffffffffffffffffffffffffffffff1998891681179091559383528185208686528352818520805488168517905560038054600181018255958190527fc2575a0e9e593c00f959f8c92f12db2869c3395a3b0502d05e2516446f71f85b9095018054909716841790965592548351928352908201527f0d3648bd0f6ba80134a33ba9275ac585d9d315f0ad8355cddefde31afa28d0e9910160405180910390a35050505092915050565b6001546001600160a01b031633146105f75760405162461bcd60e51b815260206004820152601460248201527f556e697377617056323a20464f5242494444454e0000000000000000000000006044820152606401610239565b6000805473ffffffffffffffffffffffffffffffffffffffff19166001600160a01b0392909216919091179055565b6125b5806106bb83390190565b80356001600160a01b038116811461064a57600080fd5b919050565b600060208284031215610660578081fd5b61066982610633565b9392505050565b60008060408385031215610682578081fd5b61068b83610633565b915061069960208401610633565b90509250929050565b6000602082840312156106b3578081fd5b503591905056fe60806040526001600c5534801561001557600080fd5b50604080518082018252600e81526d2532bbb2b6102628102a37b5b2b760911b6020918201528151808301835260018152603160f81b9082015281517f8b73c3c69bb8fe3d512ecc4cf759cc79239f7b179b0ffacaa9a75d522b39400f818301527fbc7b4224ad2035d88ad8f81bab60f519219273712bd9aa77e65b279aefb26d60818401527fc89efdaa54c0f20c7adf612882df0950f5a951637e0307cdcb4c672f298b8bc660608201524660808201523060a0808301919091528351808303909101815260c09091019092528151910120600355600580546001600160a01b031916331790556124a98061010c6000396000f3fe608060405234801561001057600080fd5b50600436106101b95760003560e01c80636a627842116100f9578063ba9a7a5611610097578063d21220a711610071578063d21220a714610449578063d505accf1461045c578063dd62ed3e1461046f578063fff6cae91461049a576101b9565b8063ba9a7a561461041a578063bc25cf7714610423578063c45a015514610436576101b9565b80637ecebe00116100d35780637ecebe001461038357806389afcb44146103a357806395d89b41146103cb578063a9059cbb14610407576101b9565b80636a6278421461034757806370a082311461035a5780637464fc3d1461037a576101b9565b806323b872dd116101665780633644e515116101405780633644e51514610319578063485cc955146103225780635909c0d5146103355780635a3d54931461033e576101b9565b806323b872dd146102c557806330adf81f146102d8578063313ce567146102ff576101b9565b8063095ea7b311610197578063095ea7b3146102605780630dfe16811461028357806318160ddd146102ae576101b9565b8063022c0d9f146101be57806306fdde03146101d35780630902f1ac14610225575b600080fd5b6101d16101cc3660046121c7565b6104a2565b005b61020f6040518060400160405280600e81526020017f4a6577656c204c5020546f6b656e00000000000000000000000000000000000081525081565b60405161021c91906122c1565b60405180910390f35b600854604080516001600160701b038084168252600160701b8404166020820152600160e01b90920463ffffffff169082015260600161021c565b61027361026e366004612164565b610a8b565b604051901515815260200161021c565b600654610296906001600160a01b031681565b6040516001600160a01b03909116815260200161021c565b6102b760005481565b60405190815260200161021c565b6102736102d33660046120af565b610aa2565b6102b77f6e71edae12b1b97f4d1f60370fef10105fa2faae0126114a169c64845d6126c981565b610307601281565b60405160ff909116815260200161021c565b6102b760035481565b6101d1610330366004612077565b610b33565b6102b760095481565b6102b7600a5481565b6102b761035536600461203f565b610bd3565b6102b761036836600461203f565b60016020526000908152604090205481565b6102b7600b5481565b6102b761039136600461203f565b60046020526000908152604090205481565b6103b66103b136600461203f565b610f02565b6040805192835260208301919091520161021c565b61020f6040518060400160405280600881526020017f4a4557454c2d4c5000000000000000000000000000000000000000000000000081525081565b610273610415366004612164565b6112ed565b6102b76103e881565b6101d161043136600461203f565b6112fa565b600554610296906001600160a01b031681565b600754610296906001600160a01b031681565b6101d161046a3660046120ef565b611441565b6102b761047d366004612077565b600260209081526000928352604080842090915290825290205481565b6101d161167b565b600c546001146104ed5760405162461bcd60e51b8152602060048201526011602482015270155b9a5cddd85c158c8e881313d0d2d151607a1b60448201526064015b60405180910390fd5b6000600c55841515806105005750600084115b6105725760405162461bcd60e51b815260206004820152602560248201527f556e697377617056323a20494e53554646494349454e545f4f55545055545f4160448201527f4d4f554e5400000000000000000000000000000000000000000000000000000060648201526084016104e4565b6000806105a36008546001600160701b0380821692600160701b83049091169163ffffffff600160e01b9091041690565b5091509150816001600160701b0316871080156105c85750806001600160701b031686105b61063a5760405162461bcd60e51b815260206004820152602160248201527f556e697377617056323a20494e53554646494349454e545f4c4951554944495460448201527f590000000000000000000000000000000000000000000000000000000000000060648201526084016104e4565b60065460075460009182916001600160a01b039182169190811690891682148015906106785750806001600160a01b0316896001600160a01b031614155b6106c45760405162461bcd60e51b815260206004820152601560248201527f556e697377617056323a20494e56414c49445f544f000000000000000000000060448201526064016104e4565b8a156106d5576106d5828a8d6117e1565b89156106e6576106e6818a8c6117e1565b861561076c576040517f10d1e85c0000000000000000000000000000000000000000000000000000000081526001600160a01b038a16906310d1e85c906107399033908f908f908e908e90600401612274565b600060405180830381600087803b15801561075357600080fd5b505af1158015610767573d6000803e3d6000fd5b505050505b6040516370a0823160e01b81523060048201526001600160a01b038316906370a082319060240160206040518083038186803b1580156107ab57600080fd5b505afa1580156107bf573d6000803e3d6000fd5b505050506040513d601f19601f820116820180604052508101906107e391906121af565b6040516370a0823160e01b81523060048201529094506001600160a01b038216906370a082319060240160206040518083038186803b15801561082557600080fd5b505afa158015610839573d6000803e3d6000fd5b505050506040513d601f19601f8201168201806040525081019061085d91906121af565b92505050600089856001600160701b03166108789190612394565b83116108855760006108a2565b6108988a6001600160701b038716612394565b6108a29084612394565b905060006108b98a6001600160701b038716612394565b83116108c65760006108e3565b6108d98a6001600160701b038716612394565b6108e39084612394565b905060008211806108f45750600081115b6109655760405162461bcd60e51b8152602060048201526024808201527f556e697377617056323a20494e53554646494349454e545f494e5055545f414d60448201527f4f554e540000000000000000000000000000000000000000000000000000000060648201526084016104e4565b6000610987610975846003611945565b610981876103e8611945565b906119b5565b90506000610999610975846003611945565b90506109be620f42406109b86001600160701b038b8116908b16611945565b90611945565b6109c88383611945565b1015610a165760405162461bcd60e51b815260206004820152600c60248201527f556e697377617056323a204b000000000000000000000000000000000000000060448201526064016104e4565b5050610a2484848888611a13565b60408051838152602081018390529081018c9052606081018b90526001600160a01b038a169033907fd78ad95fa46c994b6551d0da85fc275fe613ce37657fb8d5e3d130840159d8229060800160405180910390a350506001600c55505050505050505050565b6000610a98338484611bbe565b5060015b92915050565b6001600160a01b038316600090815260026020908152604080832033845290915281205415610b1e576001600160a01b0384166000908152600260209081526040808320338452909152902054610af990836119b5565b6001600160a01b03851660009081526002602090815260408083203384529091529020555b610b29848484611c20565b5060019392505050565b6005546001600160a01b03163314610b8d5760405162461bcd60e51b815260206004820152601460248201527f556e697377617056323a20464f5242494444454e00000000000000000000000060448201526064016104e4565b600680546001600160a01b039384167fffffffffffffffffffffffff00000000000000000000000000000000000000009182161790915560078054929093169116179055565b6000600c54600114610c1b5760405162461bcd60e51b8152602060048201526011602482015270155b9a5cddd85c158c8e881313d0d2d151607a1b60448201526064016104e4565b6000600c819055600854600654604080516370a0823160e01b815230600482015290516001600160701b0380851695600160701b9095041693926001600160a01b0316916370a08231916024808301926020929190829003018186803b158015610c8457600080fd5b505afa158015610c98573d6000803e3d6000fd5b505050506040513d601f19601f82011682018060405250810190610cbc91906121af565b6007546040516370a0823160e01b81523060048201529192506000916001600160a01b03909116906370a082319060240160206040518083038186803b158015610d0557600080fd5b505afa158015610d19573d6000803e3d6000fd5b505050506040513d601f19601f82011682018060405250810190610d3d91906121af565b90506000610d54836001600160701b0387166119b5565b90506000610d6b836001600160701b0387166119b5565b90506000610d798787611cc6565b60005490915080610db7576103e8610d99610d948686611945565b611e12565b610da39190612394565b9850610db260006103e8611e82565b610dfe565b610dfb6001600160701b038916610dce8684611945565b610dd89190612332565b6001600160701b038916610dec8685611945565b610df69190612332565b611f11565b98505b60008911610e745760405162461bcd60e51b815260206004820152602860248201527f556e697377617056323a20494e53554646494349454e545f4c4951554944495460448201527f595f4d494e54454400000000000000000000000000000000000000000000000060648201526084016104e4565b610e7e8a8a611e82565b610e8a86868a8a611a13565b8115610eb457600854610eb0906001600160701b0380821691600160701b900416611945565b600b555b604080518581526020810185905233917f4c209b5fc8ad50758f13e2e1088ba56a560dff690a1c6fef26394f4c03821c4f910160405180910390a250506001600c5550949695505050505050565b600080600c54600114610f4b5760405162461bcd60e51b8152602060048201526011602482015270155b9a5cddd85c158c8e881313d0d2d151607a1b60448201526064016104e4565b6000600c819055600854600654600754604080516370a0823160e01b815230600482015290516001600160701b0380861696600160701b90960416946001600160a01b0394851694909316929184916370a0823191602480820192602092909190829003018186803b158015610fc057600080fd5b505afa158015610fd4573d6000803e3d6000fd5b505050506040513d601f19601f82011682018060405250810190610ff891906121af565b6040516370a0823160e01b81523060048201529091506000906001600160a01b038416906370a082319060240160206040518083038186803b15801561103d57600080fd5b505afa158015611051573d6000803e3d6000fd5b505050506040513d601f19601f8201168201806040525081019061107591906121af565b306000908152600160205260408120549192506110928888611cc6565b600054909150806110a38487611945565b6110ad9190612332565b9a50806110ba8486611945565b6110c49190612332565b995060008b1180156110d6575060008a115b6111485760405162461bcd60e51b815260206004820152602860248201527f556e697377617056323a20494e53554646494349454e545f4c4951554944495460448201527f595f4255524e454400000000000000000000000000000000000000000000000060648201526084016104e4565b6111523084611f29565b61115d878d8d6117e1565b611168868d8c6117e1565b6040516370a0823160e01b81523060048201526001600160a01b038816906370a082319060240160206040518083038186803b1580156111a757600080fd5b505afa1580156111bb573d6000803e3d6000fd5b505050506040513d601f19601f820116820180604052508101906111df91906121af565b6040516370a0823160e01b81523060048201529095506001600160a01b038716906370a082319060240160206040518083038186803b15801561122157600080fd5b505afa158015611235573d6000803e3d6000fd5b505050506040513d601f19601f8201168201806040525081019061125991906121af565b935061126785858b8b611a13565b81156112915760085461128d906001600160701b0380821691600160701b900416611945565b600b555b604080518c8152602081018c90526001600160a01b038e169133917fdccd412f0b1252819cb1fd330b93224ca42612892bb3f4f789976e6d81936496910160405180910390a35050505050505050506001600c81905550915091565b6000610a98338484611c20565b600c546001146113405760405162461bcd60e51b8152602060048201526011602482015270155b9a5cddd85c158c8e881313d0d2d151607a1b60448201526064016104e4565b6000600c556006546007546008546040516370a0823160e01b81523060048201526001600160a01b0393841693909216916113ea91849186916113e5916001600160701b039091169084906370a08231906024015b60206040518083038186803b1580156113ad57600080fd5b505afa1580156113c1573d6000803e3d6000fd5b505050506040513d601f19601f8201168201806040525081019061098191906121af565b6117e1565b6008546040516370a0823160e01b815230600482015261143791839186916113e591600160701b9091046001600160701b0316906001600160a01b038516906370a0823190602401611395565b50506001600c5550565b428410156114915760405162461bcd60e51b815260206004820152601260248201527f556e697377617056323a2045585049524544000000000000000000000000000060448201526064016104e4565b6003546001600160a01b038816600090815260046020526040812080549192917f6e71edae12b1b97f4d1f60370fef10105fa2faae0126114a169c64845d6126c9918b918b918b9190876114e483612400565b909155506040805160208101969096526001600160a01b0394851690860152929091166060840152608083015260a082015260c0810187905260e001604051602081830303815290604052805190602001206040516020016115789291907f190100000000000000000000000000000000000000000000000000000000000081526002810192909252602282015260420190565b60408051601f198184030181528282528051602091820120600080855291840180845281905260ff88169284019290925260608301869052608083018590529092509060019060a0016020604051602081039080840390855afa1580156115e3573d6000803e3d6000fd5b5050604051601f1901519150506001600160a01b038116158015906116195750886001600160a01b0316816001600160a01b0316145b6116655760405162461bcd60e51b815260206004820152601c60248201527f556e697377617056323a20494e56414c49445f5349474e41545552450000000060448201526064016104e4565b611670898989611bbe565b505050505050505050565b600c546001146116c15760405162461bcd60e51b8152602060048201526011602482015270155b9a5cddd85c158c8e881313d0d2d151607a1b60448201526064016104e4565b6000600c556006546040516370a0823160e01b81523060048201526117da916001600160a01b0316906370a082319060240160206040518083038186803b15801561170b57600080fd5b505afa15801561171f573d6000803e3d6000fd5b505050506040513d601f19601f8201168201806040525081019061174391906121af565b6007546040516370a0823160e01b81523060048201526001600160a01b03909116906370a082319060240160206040518083038186803b15801561178657600080fd5b505afa15801561179a573d6000803e3d6000fd5b505050506040513d601f19601f820116820180604052508101906117be91906121af565b6008546001600160701b0380821691600160701b900416611a13565b6001600c55565b604080518082018252601981527f7472616e7366657228616464726573732c75696e74323536290000000000000060209182015281516001600160a01b0385811660248301526044808301869052845180840390910181526064909201845291810180516001600160e01b03167fa9059cbb00000000000000000000000000000000000000000000000000000000179052915160009283928716916118869190612258565b6000604051808303816000865af19150503d80600081146118c3576040519150601f19603f3d011682016040523d82523d6000602084013e6118c8565b606091505b50915091508180156118f25750805115806118f25750808060200190518101906118f2919061218f565b61193e5760405162461bcd60e51b815260206004820152601a60248201527f556e697377617056323a205452414e534645525f4641494c454400000000000060448201526064016104e4565b5050505050565b60008115806119695750828261195b8183612375565b92506119679083612332565b145b610a9c5760405162461bcd60e51b815260206004820152601460248201527f64732d6d6174682d6d756c2d6f766572666c6f7700000000000000000000000060448201526064016104e4565b6000826119c28382612394565b9150811115610a9c5760405162461bcd60e51b815260206004820152601560248201527f64732d6d6174682d7375622d756e646572666c6f77000000000000000000000060448201526064016104e4565b6000611a246401000000004261241b565b600854909150600090611a4490600160e01b900463ffffffff16836123ab565b905060008163ffffffff16118015611a6457506001600160701b03841615155b8015611a7857506001600160701b03831615155b15611b07578063ffffffff16611aa085611a9186611fb3565b6001600160e01b031690611fcc565b6001600160e01b0316611ab39190612375565b60096000828254611ac491906122f4565b909155505063ffffffff8116611add84611a9187611fb3565b6001600160e01b0316611af09190612375565b600a6000828254611b0191906122f4565b90915550505b600880546dffffffffffffffffffffffffffff19166001600160701b03888116919091177fffffffff0000000000000000000000000000ffffffffffffffffffffffffffff16600160701b8883168102919091176001600160e01b0316600160e01b63ffffffff87160217928390556040805184841681529190930490911660208201527f1c411e9a96e071241c2f21f7726b17ae89e3cab4c78be50e062b03a9fffbbad1910160405180910390a1505050505050565b6001600160a01b0383811660008181526002602090815260408083209487168084529482529182902085905590518481527f8c5be1e5ebec7d5bd14f71427d1e84f3dd0314c0f7b2291e5b200ac8c7c3b92591015b60405180910390a3505050565b6001600160a01b038316600090815260016020526040902054611c4390826119b5565b6001600160a01b038085166000908152600160205260408082209390935590841681522054611c729082611fe1565b6001600160a01b0380841660008181526001602052604090819020939093559151908516907fddf252ad1be2c89b69c2b068fc378daa952ba7f163c4a11628f55a4df523b3ef90611c139085815260200190565b600080600560009054906101000a90046001600160a01b03166001600160a01b031663017e7e586040518163ffffffff1660e01b815260040160206040518083038186803b158015611d1757600080fd5b505afa158015611d2b573d6000803e3d6000fd5b505050506040513d601f19601f82011682018060405250810190611d4f919061205b565b600b546001600160a01b038216158015945091925090611dfe578015611df9576000611d8a610d946001600160701b03888116908816611945565b90506000611d9783611e12565b905080821115611df6576000611db9611db084846119b5565b60005490611945565b90506000611dd283611dcc866005611945565b90611fe1565b90506000611de08284612332565b90508015611df257611df28782611e82565b5050505b50505b611e0a565b8015611e0a576000600b555b505092915050565b60006003821115611e735750806000611e2c600283612332565b611e379060016122f4565b90505b81811015611e6d57905080600281611e528186612332565b611e5c91906122f4565b611e669190612332565b9050611e3a565b50611e7d565b8115611e7d575060015b919050565b600054611e8f9082611fe1565b60009081556001600160a01b038316815260016020526040902054611eb49082611fe1565b6001600160a01b0383166000818152600160205260408082209390935591519091907fddf252ad1be2c89b69c2b068fc378daa952ba7f163c4a11628f55a4df523b3ef90611f059085815260200190565b60405180910390a35050565b6000818310611f205781611f22565b825b9392505050565b6001600160a01b038216600090815260016020526040902054611f4c90826119b5565b6001600160a01b03831660009081526001602052604081209190915554611f7390826119b5565b60009081556040518281526001600160a01b038416907fddf252ad1be2c89b69c2b068fc378daa952ba7f163c4a11628f55a4df523b3ef90602001611f05565b6000610a9c600160701b6001600160701b038416612346565b6000611f226001600160701b0383168461230c565b600082611fee83826122f4565b9150811015610a9c5760405162461bcd60e51b815260206004820152601460248201527f64732d6d6174682d6164642d6f766572666c6f7700000000000000000000000060448201526064016104e4565b600060208284031215612050578081fd5b8135611f228161245b565b60006020828403121561206c578081fd5b8151611f228161245b565b60008060408385031215612089578081fd5b82356120948161245b565b915060208301356120a48161245b565b809150509250929050565b6000806000606084860312156120c3578081fd5b83356120ce8161245b565b925060208401356120de8161245b565b929592945050506040919091013590565b600080600080600080600060e0888a031215612109578283fd5b87356121148161245b565b965060208801356121248161245b565b95506040880135945060608801359350608088013560ff81168114612147578384fd5b9699959850939692959460a0840135945060c09093013592915050565b60008060408385031215612176578182fd5b82356121818161245b565b946020939093013593505050565b6000602082840312156121a0578081fd5b81518015158114611f22578182fd5b6000602082840312156121c0578081fd5b5051919050565b6000806000806000608086880312156121de578081fd5b853594506020860135935060408601356121f78161245b565b9250606086013567ffffffffffffffff80821115612213578283fd5b818801915088601f830112612226578283fd5b813581811115612234578384fd5b896020828501011115612245578384fd5b9699959850939650602001949392505050565b6000825161226a8184602087016123d0565b9190910192915050565b60006001600160a01b038716825285602083015284604083015260806060830152826080830152828460a084013781830160a090810191909152601f909201601f19160101949350505050565b60006020825282518060208401526122e08160408501602087016123d0565b601f01601f19169190910160400192915050565b600082198211156123075761230761242f565b500190565b60006001600160e01b038084168061232657612326612445565b92169190910492915050565b60008261234157612341612445565b500490565b60006001600160e01b038083168185168183048111821515161561236c5761236c61242f565b02949350505050565b600081600019048311821515161561238f5761238f61242f565b500290565b6000828210156123a6576123a661242f565b500390565b600063ffffffff838116908316818110156123c8576123c861242f565b039392505050565b60005b838110156123eb5781810151838201526020016123d3565b838111156123fa576000848401525b50505050565b60006000198214156124145761241461242f565b5060010190565b60008261242a5761242a612445565b500690565b634e487b7160e01b600052601160045260246000fd5b634e487b7160e01b600052601260045260246000fd5b6001600160a01b038116811461247057600080fd5b5056fea26469706673582212201dc0784943cbc4f52c86c88f013fc6393f8aa455fd2fe94b758f01123e3adfcf64736f6c63430008020033a264697066735822122087bd514e8b13095f066eaf06b61408551ec09e22f66f60360f2630f1100b32a964736f6c63430008020033",
  "linkReferences": {},
  "deployedLinkReferences": {}
}