{
  "_format": "hh-sol-artifact-1",
  "contractName": "UniswapV2Router02",
  "sourceName": "contracts/uniswapv2/UniswapV2Router02.sol",
  "abi": [
    {
      "inputs": [
        {
          "internalType": "address",
          "name": "_factory",
          "type": "address"
        },
        {
          "internalType": "address",
          "name": "_WETH",
          "type": "address"
        }
      ],
      "stateMutability": "nonpayable",
      "type": "constructor"
    },
    {
      "anonymous": false,
      "inputs": [
        {
          "indexed": false,
          "internalType": "address",
          "name": "pair",
          "type": "address"
        }
      ],
      "name": "PairAddress",
      "type": "event"
    },
    {
      "inputs": [],
      "name": "WETH",
      "outputs": [
        {
          "internalType": "address",
          "name": "",
          "type": "address"
        }
      ],
      "stateMutability": "view",
      "type": "function"
    },
    {
      "inputs": [
        {
          "internalType": "address",
          "name": "tokenA",
          "type": "address"
        },
        {
          "internalType": "address",
          "name": "tokenB",
          "type": "address"
        },
        {
          "internalType": "uint256",
          "name": "amountADesired",
          "type": "uint256"
        },
        {
          "internalType": "uint256",
          "name": "amountBDesired",
          "type": "uint256"
        },
        {
          "internalType": "uint256",
          "name": "amountAMin",
          "type": "uint256"
        },
        {
          "internalType": "uint256",
          "name": "amountBMin",
          "type": "uint256"
        },
        {
          "internalType": "address",
          "name": "to",
          "type": "address"
        },
        {
          "internalType": "uint256",
          "name": "deadline",
          "type": "uint256"
        }
      ],
      "name": "addLiquidity",
      "outputs": [
        {
          "internalType": "uint256",
          "name": "amountA",
          "type": "uint256"
        },
        {
          "internalType": "uint256",
          "name": "amountB",
          "type": "uint256"
        },
        {
          "internalType": "uint256",
          "name": "liquidity",
          "type": "uint256"
        }
      ],
      "stateMutability": "nonpayable",
      "type": "function"
    },
    {
      "inputs": [
        {
          "internalType": "address",
          "name": "token",
          "type": "address"
        },
        {
          "internalType": "uint256",
          "name": "amountTokenDesired",
          "type": "uint256"
        },
        {
          "internalType": "uint256",
          "name": "amountTokenMin",
          "type": "uint256"
        },
        {
          "internalType": "uint256",
          "name": "amountETHMin",
          "type": "uint256"
        },
        {
          "internalType": "address",
          "name": "to",
          "type": "address"
        },
        {
          "internalType": "uint256",
          "name": "deadline",
          "type": "uint256"
        }
      ],
      "name": "addLiquidityETH",
      "outputs": [
        {
          "internalType": "uint256",
          "name": "amountToken",
          "type": "uint256"
        },
        {
          "internalType": "uint256",
          "name": "amountETH",
          "type": "uint256"
        },
        {
          "internalType": "uint256",
          "name": "liquidity",
          "type": "uint256"
        }
      ],
      "stateMutability": "payable",
      "type": "function"
    },
    {
      "inputs": [],
      "name": "factory",
      "outputs": [
        {
          "internalType": "address",
          "name": "",
          "type": "address"
        }
      ],
      "stateMutability": "view",
      "type": "function"
    },
    {
      "inputs": [
        {
          "internalType": "uint256",
          "name": "amountOut",
          "type": "uint256"
        },
        {
          "internalType": "uint256",
          "name": "reserveIn",
          "type": "uint256"
        },
        {
          "internalType": "uint256",
          "name": "reserveOut",
          "type": "uint256"
        }
      ],
      "name": "getAmountIn",
      "outputs": [
        {
          "internalType": "uint256",
          "name": "amountIn",
          "type": "uint256"
        }
      ],
      "stateMutability": "pure",
      "type": "function"
    },
    {
      "inputs": [
        {
          "internalType": "uint256",
          "name": "amountIn",
          "type": "uint256"
        },
        {
          "internalType": "uint256",
          "name": "reserveIn",
          "type": "uint256"
        },
        {
          "internalType": "uint256",
          "name": "reserveOut",
          "type": "uint256"
        }
      ],
      "name": "getAmountOut",
      "outputs": [
        {
          "internalType": "uint256",
          "name": "amountOut",
          "type": "uint256"
        }
      ],
      "stateMutability": "pure",
      "type": "function"
    },
    {
      "inputs": [
        {
          "internalType": "uint256",
          "name": "amountOut",
          "type": "uint256"
        },
        {
          "internalType": "address[]",
          "name": "path",
          "type": "address[]"
        }
      ],
      "name": "getAmountsIn",
      "outputs": [
        {
          "internalType": "uint256[]",
          "name": "amounts",
          "type": "uint256[]"
        }
      ],
      "stateMutability": "view",
      "type": "function"
    },
    {
      "inputs": [
        {
          "internalType": "uint256",
          "name": "amountIn",
          "type": "uint256"
        },
        {
          "internalType": "address[]",
          "name": "path",
          "type": "address[]"
        }
      ],
      "name": "getAmountsOut",
      "outputs": [
        {
          "internalType": "uint256[]",
          "name": "amounts",
          "type": "uint256[]"
        }
      ],
      "stateMutability": "view",
      "type": "function"
    },
    {
      "inputs": [
        {
          "internalType": "address",
          "name": "tokenA",
          "type": "address"
        },
        {
          "internalType": "address",
          "name": "tokenB",
          "type": "address"
        }
      ],
      "name": "getPairAddress",
      "outputs": [
        {
          "internalType": "address",
          "name": "",
          "type": "address"
        }
      ],
      "stateMutability": "nonpayable",
      "type": "function"
    },
    {
      "inputs": [
        {
          "internalType": "uint256",
          "name": "amountA",
          "type": "uint256"
        },
        {
          "internalType": "uint256",
          "name": "reserveA",
          "type": "uint256"
        },
        {
          "internalType": "uint256",
          "name": "reserveB",
          "type": "uint256"
        }
      ],
      "name": "quote",
      "outputs": [
        {
          "internalType": "uint256",
          "name": "amountB",
          "type": "uint256"
        }
      ],
      "stateMutability": "pure",
      "type": "function"
    },
    {
      "inputs": [
        {
          "internalType": "address",
          "name": "tokenA",
          "type": "address"
        },
        {
          "internalType": "address",
          "name": "tokenB",
          "type": "address"
        },
        {
          "internalType": "uint256",
          "name": "liquidity",
          "type": "uint256"
        },
        {
          "internalType": "uint256",
          "name": "amountAMin",
          "type": "uint256"
        },
        {
          "internalType": "uint256",
          "name": "amountBMin",
          "type": "uint256"
        },
        {
          "internalType": "address",
          "name": "to",
          "type": "address"
        },
        {
          "internalType": "uint256",
          "name": "deadline",
          "type": "uint256"
        }
      ],
      "name": "removeLiquidity",
      "outputs": [
        {
          "internalType": "uint256",
          "name": "amountA",
          "type": "uint256"
        },
        {
          "internalType": "uint256",
          "name": "amountB",
          "type": "uint256"
        }
      ],
      "stateMutability": "nonpayable",
      "type": "function"
    },
    {
      "inputs": [
        {
          "internalType": "address",
          "name": "token",
          "type": "address"
        },
        {
          "internalType": "uint256",
          "name": "liquidity",
          "type": "uint256"
        },
        {
          "internalType": "uint256",
          "name": "amountTokenMin",
          "type": "uint256"
        },
        {
          "internalType": "uint256",
          "name": "amountETHMin",
          "type": "uint256"
        },
        {
          "internalType": "address",
          "name": "to",
          "type": "address"
        },
        {
          "internalType": "uint256",
          "name": "deadline",
          "type": "uint256"
        }
      ],
      "name": "removeLiquidityETH",
      "outputs": [
        {
          "internalType": "uint256",
          "name": "amountToken",
          "type": "uint256"
        },
        {
          "internalType": "uint256",
          "name": "amountETH",
          "type": "uint256"
        }
      ],
      "stateMutability": "nonpayable",
      "type": "function"
    },
    {
      "inputs": [
        {
          "internalType": "address",
          "name": "token",
          "type": "address"
        },
        {
          "internalType": "uint256",
          "name": "liquidity",
          "type": "uint256"
        },
        {
          "internalType": "uint256",
          "name": "amountTokenMin",
          "type": "uint256"
        },
        {
          "internalType": "uint256",
          "name": "amountETHMin",
          "type": "uint256"
        },
        {
          "internalType": "address",
          "name": "to",
          "type": "address"
        },
        {
          "internalType": "uint256",
          "name": "deadline",
          "type": "uint256"
        }
      ],
      "name": "removeLiquidityETHSupportingFeeOnTransferTokens",
      "outputs": [
        {
          "internalType": "uint256",
          "name": "amountETH",
          "type": "uint256"
        }
      ],
      "stateMutability": "nonpayable",
      "type": "function"
    },
    {
      "inputs": [
        {
          "internalType": "address",
          "name": "token",
          "type": "address"
        },
        {
          "internalType": "uint256",
          "name": "liquidity",
          "type": "uint256"
        },
        {
          "internalType": "uint256",
          "name": "amountTokenMin",
          "type": "uint256"
        },
        {
          "internalType": "uint256",
          "name": "amountETHMin",
          "type": "uint256"
        },
        {
          "internalType": "address",
          "name": "to",
          "type": "address"
        },
        {
          "internalType": "uint256",
          "name": "deadline",
          "type": "uint256"
        },
        {
          "internalType": "bool",
          "name": "approveMax",
          "type": "bool"
        },
        {
          "internalType": "uint8",
          "name": "v",
          "type": "uint8"
        },
        {
          "internalType": "bytes32",
          "name": "r",
          "type": "bytes32"
        },
        {
          "internalType": "bytes32",
          "name": "s",
          "type": "bytes32"
        }
      ],
      "name": "removeLiquidityETHWithPermit",
      "outputs": [
        {
          "internalType": "uint256",
          "name": "amountToken",
          "type": "uint256"
        },
        {
          "internalType": "uint256",
          "name": "amountETH",
          "type": "uint256"
        }
      ],
      "stateMutability": "nonpayable",
      "type": "function"
    },
    {
      "inputs": [
        {
          "internalType": "address",
          "name": "token",
          "type": "address"
        },
        {
          "internalType": "uint256",
          "name": "liquidity",
          "type": "uint256"
        },
        {
          "internalType": "uint256",
          "name": "amountTokenMin",
          "type": "uint256"
        },
        {
          "internalType": "uint256",
          "name": "amountETHMin",
          "type": "uint256"
        },
        {
          "internalType": "address",
          "name": "to",
          "type": "address"
        },
        {
          "internalType": "uint256",
          "name": "deadline",
          "type": "uint256"
        },
        {
          "internalType": "bool",
          "name": "approveMax",
          "type": "bool"
        },
        {
          "internalType": "uint8",
          "name": "v",
          "type": "uint8"
        },
        {
          "internalType": "bytes32",
          "name": "r",
          "type": "bytes32"
        },
        {
          "internalType": "bytes32",
          "name": "s",
          "type": "bytes32"
        }
      ],
      "name": "removeLiquidityETHWithPermitSupportingFeeOnTransferTokens",
      "outputs": [
        {
          "internalType": "uint256",
          "name": "amountETH",
          "type": "uint256"
        }
      ],
      "stateMutability": "nonpayable",
      "type": "function"
    },
    {
      "inputs": [
        {
          "internalType": "address",
          "name": "tokenA",
          "type": "address"
        },
        {
          "internalType": "address",
          "name": "tokenB",
          "type": "address"
        },
        {
          "internalType": "uint256",
          "name": "liquidity",
          "type": "uint256"
        },
        {
          "internalType": "uint256",
          "name": "amountAMin",
          "type": "uint256"
        },
        {
          "internalType": "uint256",
          "name": "amountBMin",
          "type": "uint256"
        },
        {
          "internalType": "address",
          "name": "to",
          "type": "address"
        },
        {
          "internalType": "uint256",
          "name": "deadline",
          "type": "uint256"
        },
        {
          "internalType": "bool",
          "name": "approveMax",
          "type": "bool"
        },
        {
          "internalType": "uint8",
          "name": "v",
          "type": "uint8"
        },
        {
          "internalType": "bytes32",
          "name": "r",
          "type": "bytes32"
        },
        {
          "internalType": "bytes32",
          "name": "s",
          "type": "bytes32"
        }
      ],
      "name": "removeLiquidityWithPermit",
      "outputs": [
        {
          "internalType": "uint256",
          "name": "amountA",
          "type": "uint256"
        },
        {
          "internalType": "uint256",
          "name": "amountB",
          "type": "uint256"
        }
      ],
      "stateMutability": "nonpayable",
      "type": "function"
    },
    {
      "inputs": [
        {
          "internalType": "uint256",
          "name": "amountOut",
          "type": "uint256"
        },
        {
          "internalType": "address[]",
          "name": "path",
          "type": "address[]"
        },
        {
          "internalType": "address",
          "name": "to",
          "type": "address"
        },
        {
          "internalType": "uint256",
          "name": "deadline",
          "type": "uint256"
        }
      ],
      "name": "swapETHForExactTokens",
      "outputs": [
        {
          "internalType": "uint256[]",
          "name": "amounts",
          "type": "uint256[]"
        }
      ],
      "stateMutability": "payable",
      "type": "function"
    },
    {
      "inputs": [
        {
          "internalType": "uint256",
          "name": "amountOutMin",
          "type": "uint256"
        },
        {
          "internalType": "address[]",
          "name": "path",
          "type": "address[]"
        },
        {
          "internalType": "address",
          "name": "to",
          "type": "address"
        },
        {
          "internalType": "uint256",
          "name": "deadline",
          "type": "uint256"
        }
      ],
      "name": "swapExactETHForTokens",
      "outputs": [
        {
          "internalType": "uint256[]",
          "name": "amounts",
          "type": "uint256[]"
        }
      ],
      "stateMutability": "payable",
      "type": "function"
    },
    {
      "inputs": [
        {
          "internalType": "uint256",
          "name": "amountOutMin",
          "type": "uint256"
        },
        {
          "internalType": "address[]",
          "name": "path",
          "type": "address[]"
        },
        {
          "internalType": "address",
          "name": "to",
          "type": "address"
        },
        {
          "internalType": "uint256",
          "name": "deadline",
          "type": "uint256"
        }
      ],
      "name": "swapExactETHForTokensSupportingFeeOnTransferTokens",
      "outputs": [],
      "stateMutability": "payable",
      "type": "function"
    },
    {
      "inputs": [
        {
          "internalType": "uint256",
          "name": "amountIn",
          "type": "uint256"
        },
        {
          "internalType": "uint256",
          "name": "amountOutMin",
          "type": "uint256"
        },
        {
          "internalType": "address[]",
          "name": "path",
          "type": "address[]"
        },
        {
          "internalType": "address",
          "name": "to",
          "type": "address"
        },
        {
          "internalType": "uint256",
          "name": "deadline",
          "type": "uint256"
        }
      ],
      "name": "swapExactTokensForETH",
      "outputs": [
        {
          "internalType": "uint256[]",
          "name": "amounts",
          "type": "uint256[]"
        }
      ],
      "stateMutability": "nonpayable",
      "type": "function"
    },
    {
      "inputs": [
        {
          "internalType": "uint256",
          "name": "amountIn",
          "type": "uint256"
        },
        {
          "internalType": "uint256",
          "name": "amountOutMin",
          "type": "uint256"
        },
        {
          "internalType": "address[]",
          "name": "path",
          "type": "address[]"
        },
        {
          "internalType": "address",
          "name": "to",
          "type": "address"
        },
        {
          "internalType": "uint256",
          "name": "deadline",
          "type": "uint256"
        }
      ],
      "name": "swapExactTokensForETHSupportingFeeOnTransferTokens",
      "outputs": [],
      "stateMutability": "nonpayable",
      "type": "function"
    },
    {
      "inputs": [
        {
          "internalType": "uint256",
          "name": "amountIn",
          "type": "uint256"
        },
        {
          "internalType": "uint256",
          "name": "amountOutMin",
          "type": "uint256"
        },
        {
          "internalType": "address[]",
          "name": "path",
          "type": "address[]"
        },
        {
          "internalType": "address",
          "name": "to",
          "type": "address"
        },
        {
          "internalType": "uint256",
          "name": "deadline",
          "type": "uint256"
        }
      ],
      "name": "swapExactTokensForTokens",
      "outputs": [
        {
          "internalType": "uint256[]",
          "name": "amounts",
          "type": "uint256[]"
        }
      ],
      "stateMutability": "nonpayable",
      "type": "function"
    },
    {
      "inputs": [
        {
          "internalType": "uint256",
          "name": "amountIn",
          "type": "uint256"
        },
        {
          "internalType": "uint256",
          "name": "amountOutMin",
          "type": "uint256"
        },
        {
          "internalType": "address[]",
          "name": "path",
          "type": "address[]"
        },
        {
          "internalType": "address",
          "name": "to",
          "type": "address"
        },
        {
          "internalType": "uint256",
          "name": "deadline",
          "type": "uint256"
        }
      ],
      "name": "swapExactTokensForTokensSupportingFeeOnTransferTokens",
      "outputs": [],
      "stateMutability": "nonpayable",
      "type": "function"
    },
    {
      "inputs": [
        {
          "internalType": "uint256",
          "name": "amountOut",
          "type": "uint256"
        },
        {
          "internalType": "uint256",
          "name": "amountInMax",
          "type": "uint256"
        },
        {
          "internalType": "address[]",
          "name": "path",
          "type": "address[]"
        },
        {
          "internalType": "address",
          "name": "to",
          "type": "address"
        },
        {
          "internalType": "uint256",
          "name": "deadline",
          "type": "uint256"
        }
      ],
      "name": "swapTokensForExactETH",
      "outputs": [
        {
          "internalType": "uint256[]",
          "name": "amounts",
          "type": "uint256[]"
        }
      ],
      "stateMutability": "nonpayable",
      "type": "function"
    },
    {
      "inputs": [
        {
          "internalType": "uint256",
          "name": "amountOut",
          "type": "uint256"
        },
        {
          "internalType": "uint256",
          "name": "amountInMax",
          "type": "uint256"
        },
        {
          "internalType": "address[]",
          "name": "path",
          "type": "address[]"
        },
        {
          "internalType": "address",
          "name": "to",
          "type": "address"
        },
        {
          "internalType": "uint256",
          "name": "deadline",
          "type": "uint256"
        }
      ],
      "name": "swapTokensForExactTokens",
      "outputs": [
        {
          "internalType": "uint256[]",
          "name": "amounts",
          "type": "uint256[]"
        }
      ],
      "stateMutability": "nonpayable",
      "type": "function"
    },
    {
      "stateMutability": "payable",
      "type": "receive"
    }
  ],
  "bytecode": "0x60c06040523480156200001157600080fd5b5060405162004e6738038062004e67833981016040819052620000349162000070565b6001600160601b0319606092831b8116608052911b1660a052620000a7565b80516001600160a01b03811681146200006b57600080fd5b919050565b6000806040838503121562000083578182fd5b6200008e8362000053565b91506200009e6020840162000053565b90509250929050565b60805160601c60a05160601c614c2162000246600039600081816101aa015281816103c6015281816105b501528181610604015281816106de015281816109c901528181610dd301528181610f9a015281816113e70152818161151601528181611614015281816116c5015281816118730152818161190f01528181611c1a01528181611ce101528181611e0401528181611ebf01528181611f33015281816124bb01528181612710015281816127660152818161279a0152818161282f015281816129b201528181612b500152612bec0152600081816104a501528181610798015281816108ca01528181610acb01528181610b0401528181610c3201528181610e8d01528181610f78015281816110f40152818161177e0152818161194101528181611ae301528181611d5701528181611f65015281816122100152818161246901528181612499015281816125f90152818161274401528181612a6b01528181612c1e015281816135e3015281816136410152818161397c01528181613b0101528181613f960152818161406101526140e70152614c216000f3fe60806040526004361061019a5760003560e01c80638803dbee116100e1578063baa2abde1161008a578063ded9382a11610064578063ded9382a146104e7578063e8e3370014610507578063f305d71914610542578063fb3bdb4114610555576101e7565b8063baa2abde14610473578063c45a015514610493578063d06ca61f146104c7576101e7565b8063af2979eb116100bb578063af2979eb14610420578063b4f69a2f14610440578063b6f9de9514610460576101e7565b80638803dbee14610394578063ad5c4648146103b4578063ad615dec14610400576101e7565b80634a25d94a11610143578063791ac9471161011d578063791ac947146103415780637ff36ab51461036157806385f8c25914610374576101e7565b80634a25d94a146102e15780635b0d5984146103015780635c11d79514610321576101e7565b80631f00ca74116101745780631f00ca74146102815780632195995c146102a157806338ed1739146102c1576101e7565b806302751cec146101ec578063054d50d41461022657806318cbafe514610254576101e7565b366101e757336001600160a01b037f000000000000000000000000000000000000000000000000000000000000000016146101e557634e487b7160e01b600052600160045260246000fd5b005b600080fd5b3480156101f857600080fd5b5061020c610207366004614692565b610568565b604080519283526020830191909152015b60405180910390f35b34801561023257600080fd5b506102466102413660046149d1565b61067e565b60405190815260200161021d565b34801561026057600080fd5b5061027461026f366004614960565b610693565b60405161021d9190614a18565b34801561028d57600080fd5b5061027461029c36600461486b565b610ac4565b3480156102ad57600080fd5b5061020c6102bc36600461456e565b610afa565b3480156102cd57600080fd5b506102746102dc366004614960565b610bec565b3480156102ed57600080fd5b506102746102fc366004614960565b610d88565b34801561030d57600080fd5b5061024661031c3660046146ef565b610f70565b34801561032d57600080fd5b506101e561033c366004614960565b611076565b34801561034d57600080fd5b506101e561035c366004614960565b61139e565b61027461036f366004614806565b611682565b34801561038057600080fd5b5061024661038f3660046149d1565b611a90565b3480156103a057600080fd5b506102746103af366004614960565b611a9d565b3480156103c057600080fd5b506103e87f000000000000000000000000000000000000000000000000000000000000000081565b6040516001600160a01b03909116815260200161021d565b34801561040c57600080fd5b5061024661041b3660046149d1565b611bc6565b34801561042c57600080fd5b5061024661043b366004614692565b611bd3565b34801561044c57600080fd5b506103e861045b3660046144c5565b611d4f565b6101e561046e366004614806565b611dc3565b34801561047f57600080fd5b5061020c61048e3660046144fd565b6121c7565b34801561049f57600080fd5b506103e87f000000000000000000000000000000000000000000000000000000000000000081565b3480156104d357600080fd5b506102746104e236600461486b565b612462565b3480156104f357600080fd5b5061020c6105023660046146ef565b61248f565b34801561051357600080fd5b50610527610522366004614617565b61259b565b6040805193845260208401929092529082015260600161021d565b610527610550366004614692565b6126c6565b610274610563366004614806565b61296f565b60008082428110156105af5760405162461bcd60e51b81526020600482015260186024820152600080516020614bcc83398151915260448201526064015b60405180910390fd5b6105de897f00000000000000000000000000000000000000000000000000000000000000008a8a8a308a6121c7565b90935091506105ee898685612dcb565b604051632e1a7d4d60e01b8152600481018390527f00000000000000000000000000000000000000000000000000000000000000006001600160a01b031690632e1a7d4d90602401600060405180830381600087803b15801561065057600080fd5b505af1158015610664573d6000803e3d6000fd5b505050506106728583612efb565b50965096945050505050565b600061068b848484612fe3565b949350505050565b606081428110156106d45760405162461bcd60e51b81526020600482015260186024820152600080516020614bcc83398151915260448201526064016105a6565b6001600160a01b037f000000000000000000000000000000000000000000000000000000000000000016868661070b600182614b04565b81811061072857634e487b7160e01b600052603260045260246000fd5b905060200201602081019061073d9190614486565b6001600160a01b0316146107935760405162461bcd60e51b815260206004820152601d60248201527f556e69737761705632526f757465723a20494e56414c49445f5041544800000060448201526064016105a6565b6107f17f00000000000000000000000000000000000000000000000000000000000000008988888080602002602001604051908101604052809392919081815260200183836020028082843760009201919091525061311492505050565b91508682600184516108039190614b04565b8151811061082157634e487b7160e01b600052603260045260246000fd5b6020026020010151101561088b5760405162461bcd60e51b815260206004820152602b60248201527f556e69737761705632526f757465723a20494e53554646494349454e545f4f5560448201526a1514155517d05353d5539560aa1b60648201526084016105a6565b610988868660008181106108af57634e487b7160e01b600052603260045260246000fd5b90506020020160208101906108c49190614486565b3361095a7f00000000000000000000000000000000000000000000000000000000000000008a8a600081811061090a57634e487b7160e01b600052603260045260246000fd5b905060200201602081019061091f9190614486565b8b8b600181811061094057634e487b7160e01b600052603260045260246000fd5b90506020020160208101906109559190614486565b6132f3565b8560008151811061097b57634e487b7160e01b600052603260045260246000fd5b6020026020010151613378565b6109c7828787808060200260200160405190810160405280939291908181526020018383602002808284376000920191909152503092506134d6915050565b7f00000000000000000000000000000000000000000000000000000000000000006001600160a01b0316632e1a7d4d8360018551610a059190614b04565b81518110610a2357634e487b7160e01b600052603260045260246000fd5b60200260200101516040518263ffffffff1660e01b8152600401610a4991815260200190565b600060405180830381600087803b158015610a6357600080fd5b505af1158015610a77573d6000803e3d6000fd5b50505050610ab9848360018551610a8e9190614b04565b81518110610aac57634e487b7160e01b600052603260045260246000fd5b6020026020010151612efb565b509695505050505050565b6060610af17f00000000000000000000000000000000000000000000000000000000000000008484613716565b90505b92915050565b6000806000610b2a7f00000000000000000000000000000000000000000000000000000000000000008f8f6132f3565b9050600087610b39578c610b3c565b60005b60405163d505accf60e01b815233600482015230602482015260448101829052606481018b905260ff8916608482015260a4810188905260c481018790529091506001600160a01b0383169063d505accf9060e401600060405180830381600087803b158015610bab57600080fd5b505af1158015610bbf573d6000803e3d6000fd5b50505050610bd28f8f8f8f8f8f8f6121c7565b809450819550505050509b509b9950505050505050505050565b60608142811015610c2d5760405162461bcd60e51b81526020600482015260186024820152600080516020614bcc83398151915260448201526064016105a6565b610c8b7f00000000000000000000000000000000000000000000000000000000000000008988888080602002602001604051908101604052809392919081815260200183836020028082843760009201919091525061311492505050565b9150868260018451610c9d9190614b04565b81518110610cbb57634e487b7160e01b600052603260045260246000fd5b60200260200101511015610d255760405162461bcd60e51b815260206004820152602b60248201527f556e69737761705632526f757465723a20494e53554646494349454e545f4f5560448201526a1514155517d05353d5539560aa1b60648201526084016105a6565b610d49868660008181106108af57634e487b7160e01b600052603260045260246000fd5b610ab9828787808060200260200160405190810160405280939291908181526020018383602002808284376000920191909152508992506134d6915050565b60608142811015610dc95760405162461bcd60e51b81526020600482015260186024820152600080516020614bcc83398151915260448201526064016105a6565b6001600160a01b037f0000000000000000000000000000000000000000000000000000000000000000168686610e00600182614b04565b818110610e1d57634e487b7160e01b600052603260045260246000fd5b9050602002016020810190610e329190614486565b6001600160a01b031614610e885760405162461bcd60e51b815260206004820152601d60248201527f556e69737761705632526f757465723a20494e56414c49445f5041544800000060448201526064016105a6565b610ee67f00000000000000000000000000000000000000000000000000000000000000008988888080602002602001604051908101604052809392919081815260200183836020028082843760009201919091525061371692505050565b91508682600081518110610f0a57634e487b7160e01b600052603260045260246000fd5b6020026020010151111561088b5760405162461bcd60e51b815260206004820152602760248201527f556e69737761705632526f757465723a204558434553534956455f494e50555460448201526617d05353d5539560ca1b60648201526084016105a6565b600080610fbe7f00000000000000000000000000000000000000000000000000000000000000008d7f00000000000000000000000000000000000000000000000000000000000000006132f3565b9050600086610fcd578b610fd0565b60005b60405163d505accf60e01b815233600482015230602482015260448101829052606481018a905260ff8816608482015260a4810187905260c481018690529091506001600160a01b0383169063d505accf9060e401600060405180830381600087803b15801561103f57600080fd5b505af1158015611053573d6000803e3d6000fd5b505050506110658d8d8d8d8d8d611bd3565b9d9c50505050505050505050505050565b80428110156110b55760405162461bcd60e51b81526020600482015260186024820152600080516020614bcc83398151915260448201526064016105a6565b611170858560008181106110d957634e487b7160e01b600052603260045260246000fd5b90506020020160208101906110ee9190614486565b3361116a7f00000000000000000000000000000000000000000000000000000000000000008989600081811061113457634e487b7160e01b600052603260045260246000fd5b90506020020160208101906111499190614486565b8a8a600181811061094057634e487b7160e01b600052603260045260246000fd5b8a613378565b6000858561117f600182614b04565b81811061119c57634e487b7160e01b600052603260045260246000fd5b90506020020160208101906111b19190614486565b6040516370a0823160e01b81526001600160a01b03868116600483015291909116906370a082319060240160206040518083038186803b1580156111f457600080fd5b505afa158015611208573d6000803e3d6000fd5b505050506040513d601f19601f8201168201806040525081019061122c91906147ee565b905061126c8686808060200260200160405190810160405280939291908181526020018383602002808284376000920191909152508892506138eb915050565b8661133282888861127e600182614b04565b81811061129b57634e487b7160e01b600052603260045260246000fd5b90506020020160208101906112b09190614486565b6040516370a0823160e01b81526001600160a01b03898116600483015291909116906370a08231906024015b60206040518083038186803b1580156112f457600080fd5b505afa158015611308573d6000803e3d6000fd5b505050506040513d601f19601f8201168201806040525081019061132c91906147ee565b90613bd6565b10156113945760405162461bcd60e51b815260206004820152602b60248201527f556e69737761705632526f757465723a20494e53554646494349454e545f4f5560448201526a1514155517d05353d5539560aa1b60648201526084016105a6565b5050505050505050565b80428110156113dd5760405162461bcd60e51b81526020600482015260186024820152600080516020614bcc83398151915260448201526064016105a6565b6001600160a01b037f0000000000000000000000000000000000000000000000000000000000000000168585611414600182614b04565b81811061143157634e487b7160e01b600052603260045260246000fd5b90506020020160208101906114469190614486565b6001600160a01b03161461149c5760405162461bcd60e51b815260206004820152601d60248201527f556e69737761705632526f757465723a20494e56414c49445f5041544800000060448201526064016105a6565b6114c0858560008181106110d957634e487b7160e01b600052603260045260246000fd5b6114fe8585808060200260200160405190810160405280939291908181526020018383602002808284376000920191909152503092506138eb915050565b6040516370a0823160e01b81523060048201526000907f00000000000000000000000000000000000000000000000000000000000000006001600160a01b0316906370a082319060240160206040518083038186803b15801561156057600080fd5b505afa158015611574573d6000803e3d6000fd5b505050506040513d601f19601f8201168201806040525081019061159891906147ee565b9050868110156115fe5760405162461bcd60e51b815260206004820152602b60248201527f556e69737761705632526f757465723a20494e53554646494349454e545f4f5560448201526a1514155517d05353d5539560aa1b60648201526084016105a6565b604051632e1a7d4d60e01b8152600481018290527f00000000000000000000000000000000000000000000000000000000000000006001600160a01b031690632e1a7d4d90602401600060405180830381600087803b15801561166057600080fd5b505af1158015611674573d6000803e3d6000fd5b505050506113948482612efb565b606081428110156116c35760405162461bcd60e51b81526020600482015260186024820152600080516020614bcc83398151915260448201526064016105a6565b7f00000000000000000000000000000000000000000000000000000000000000006001600160a01b03168686600081811061170e57634e487b7160e01b600052603260045260246000fd5b90506020020160208101906117239190614486565b6001600160a01b0316146117795760405162461bcd60e51b815260206004820152601d60248201527f556e69737761705632526f757465723a20494e56414c49445f5041544800000060448201526064016105a6565b6117d77f00000000000000000000000000000000000000000000000000000000000000003488888080602002602001604051908101604052809392919081815260200183836020028082843760009201919091525061311492505050565b91508682600184516117e99190614b04565b8151811061180757634e487b7160e01b600052603260045260246000fd5b602002602001015110156118715760405162461bcd60e51b815260206004820152602b60248201527f556e69737761705632526f757465723a20494e53554646494349454e545f4f5560448201526a1514155517d05353d5539560aa1b60648201526084016105a6565b7f00000000000000000000000000000000000000000000000000000000000000006001600160a01b031663d0e30db0836000815181106118c157634e487b7160e01b600052603260045260246000fd5b60200260200101516040518263ffffffff1660e01b81526004016000604051808303818588803b1580156118f457600080fd5b505af1158015611908573d6000803e3d6000fd5b50505050507f00000000000000000000000000000000000000000000000000000000000000006001600160a01b031663a9059cbb6119817f00000000000000000000000000000000000000000000000000000000000000008989600081811061113457634e487b7160e01b600052603260045260246000fd5b846000815181106119a257634e487b7160e01b600052603260045260246000fd5b60200260200101516040518363ffffffff1660e01b81526004016119db9291906001600160a01b03929092168252602082015260400190565b602060405180830381600087803b1580156119f557600080fd5b505af1158015611a09573d6000803e3d6000fd5b505050506040513d601f19601f82011682018060405250810190611a2d9190614784565b611a4757634e487b7160e01b600052600160045260246000fd5b611a86828787808060200260200160405190810160405280939291908181526020018383602002808284376000920191909152508992506134d6915050565b5095945050505050565b600061068b848484613c34565b60608142811015611ade5760405162461bcd60e51b81526020600482015260186024820152600080516020614bcc83398151915260448201526064016105a6565b611b3c7f00000000000000000000000000000000000000000000000000000000000000008988888080602002602001604051908101604052809392919081815260200183836020028082843760009201919091525061371692505050565b91508682600081518110611b6057634e487b7160e01b600052603260045260246000fd5b60200260200101511115610d255760405162461bcd60e51b815260206004820152602760248201527f556e69737761705632526f757465723a204558434553534956455f494e50555460448201526617d05353d5539560ca1b60648201526084016105a6565b600061068b848484613d5f565b60008142811015611c145760405162461bcd60e51b81526020600482015260186024820152600080516020614bcc83398151915260448201526064016105a6565b611c43887f000000000000000000000000000000000000000000000000000000000000000089898930896121c7565b6040516370a0823160e01b8152306004820152909350611ccb9150899086906001600160a01b038316906370a082319060240160206040518083038186803b158015611c8e57600080fd5b505afa158015611ca2573d6000803e3d6000fd5b505050506040513d601f19601f82011682018060405250810190611cc691906147ee565b612dcb565b604051632e1a7d4d60e01b8152600481018390527f00000000000000000000000000000000000000000000000000000000000000006001600160a01b031690632e1a7d4d90602401600060405180830381600087803b158015611d2d57600080fd5b505af1158015611d41573d6000803e3d6000fd5b50505050610ab98483612efb565b600080611d7d7f000000000000000000000000000000000000000000000000000000000000000085856132f3565b6040516001600160a01b03821681529091507f1c7b1c9733076ed676ef1589665f4f39479ef04772d413474120c587daa4895b9060200160405180910390a19392505050565b8042811015611e025760405162461bcd60e51b81526020600482015260186024820152600080516020614bcc83398151915260448201526064016105a6565b7f00000000000000000000000000000000000000000000000000000000000000006001600160a01b031685856000818110611e4d57634e487b7160e01b600052603260045260246000fd5b9050602002016020810190611e629190614486565b6001600160a01b031614611eb85760405162461bcd60e51b815260206004820152601d60248201527f556e69737761705632526f757465723a20494e56414c49445f5041544800000060448201526064016105a6565b60003490507f00000000000000000000000000000000000000000000000000000000000000006001600160a01b031663d0e30db0826040518263ffffffff1660e01b81526004016000604051808303818588803b158015611f1857600080fd5b505af1158015611f2c573d6000803e3d6000fd5b50505050507f00000000000000000000000000000000000000000000000000000000000000006001600160a01b031663a9059cbb611fa57f00000000000000000000000000000000000000000000000000000000000000008989600081811061113457634e487b7160e01b600052603260045260246000fd5b6040517fffffffff0000000000000000000000000000000000000000000000000000000060e084901b1681526001600160a01b03909116600482015260248101849052604401602060405180830381600087803b15801561200557600080fd5b505af1158015612019573d6000803e3d6000fd5b505050506040513d601f19601f8201168201806040525081019061203d9190614784565b61205757634e487b7160e01b600052600160045260246000fd5b60008686612066600182614b04565b81811061208357634e487b7160e01b600052603260045260246000fd5b90506020020160208101906120989190614486565b6040516370a0823160e01b81526001600160a01b03878116600483015291909116906370a082319060240160206040518083038186803b1580156120db57600080fd5b505afa1580156120ef573d6000803e3d6000fd5b505050506040513d601f19601f8201168201806040525081019061211391906147ee565b90506121538787808060200260200160405190810160405280939291908181526020018383602002808284376000920191909152508992506138eb915050565b87611332828989612165600182614b04565b81811061218257634e487b7160e01b600052603260045260246000fd5b90506020020160208101906121979190614486565b6040516370a0823160e01b81526001600160a01b038a8116600483015291909116906370a08231906024016112dc565b60008082428110156122095760405162461bcd60e51b81526020600482015260186024820152600080516020614bcc83398151915260448201526064016105a6565b60006122367f00000000000000000000000000000000000000000000000000000000000000008c8c6132f3565b6040516323b872dd60e01b81523360048201526001600160a01b03821660248201819052604482018c90529192506323b872dd90606401602060405180830381600087803b15801561228757600080fd5b505af115801561229b573d6000803e3d6000fd5b505050506040513d601f19601f820116820180604052508101906122bf9190614784565b506040517f89afcb440000000000000000000000000000000000000000000000000000000081526001600160a01b03878116600483015260009182918416906389afcb44906024016040805180830381600087803b15801561232057600080fd5b505af1158015612334573d6000803e3d6000fd5b505050506040513d601f19601f82011682018060405250810190612358919061493d565b9150915060006123688e8e613e58565b509050806001600160a01b03168e6001600160a01b03161461238b57818361238e565b82825b90975095508a8710156123f25760405162461bcd60e51b815260206004820152602660248201527f556e69737761705632526f757465723a20494e53554646494349454e545f415f604482015265105353d5539560d21b60648201526084016105a6565b898610156124515760405162461bcd60e51b815260206004820152602660248201527f556e69737761705632526f757465723a20494e53554646494349454e545f425f604482015265105353d5539560d21b60648201526084016105a6565b505050505097509795505050505050565b6060610af17f00000000000000000000000000000000000000000000000000000000000000008484613114565b60008060006124df7f00000000000000000000000000000000000000000000000000000000000000008e7f00000000000000000000000000000000000000000000000000000000000000006132f3565b90506000876124ee578c6124f1565b60005b60405163d505accf60e01b815233600482015230602482015260448101829052606481018b905260ff8916608482015260a4810188905260c481018790529091506001600160a01b0383169063d505accf9060e401600060405180830381600087803b15801561256057600080fd5b505af1158015612574573d6000803e3d6000fd5b505050506125868e8e8e8e8e8e610568565b909f909e509c50505050505050505050505050565b600080600083428110156125df5760405162461bcd60e51b81526020600482015260186024820152600080516020614bcc83398151915260448201526064016105a6565b6125ed8c8c8c8c8c8c613f68565b9094509250600061261f7f00000000000000000000000000000000000000000000000000000000000000008e8e6132f3565b905061262d8d338388613378565b6126398c338387613378565b6040516335313c2160e11b81526001600160a01b038881166004830152821690636a62784290602401602060405180830381600087803b15801561267c57600080fd5b505af1158015612690573d6000803e3d6000fd5b505050506040513d601f19601f820116820180604052508101906126b491906147ee565b92505050985098509895505050505050565b6000806000834281101561270a5760405162461bcd60e51b81526020600482015260186024820152600080516020614bcc83398151915260448201526064016105a6565b6127388a7f00000000000000000000000000000000000000000000000000000000000000008b348c8c613f68565b9094509250600061278a7f00000000000000000000000000000000000000000000000000000000000000008c7f00000000000000000000000000000000000000000000000000000000000000006132f3565b90506127988b338388613378565b7f00000000000000000000000000000000000000000000000000000000000000006001600160a01b031663d0e30db0856040518263ffffffff1660e01b81526004016000604051808303818588803b1580156127f357600080fd5b505af1158015612807573d6000803e3d6000fd5b505060405163a9059cbb60e01b81526001600160a01b038581166004830152602482018990527f000000000000000000000000000000000000000000000000000000000000000016935063a9059cbb92506044019050602060405180830381600087803b15801561287757600080fd5b505af115801561288b573d6000803e3d6000fd5b505050506040513d601f19601f820116820180604052508101906128af9190614784565b6128c957634e487b7160e01b600052600160045260246000fd5b6040516335313c2160e11b81526001600160a01b038881166004830152821690636a62784290602401602060405180830381600087803b15801561290c57600080fd5b505af1158015612920573d6000803e3d6000fd5b505050506040513d601f19601f8201168201806040525081019061294491906147ee565b925083341115612961576129613361295c8634614b04565b612efb565b505096509650969350505050565b606081428110156129b05760405162461bcd60e51b81526020600482015260186024820152600080516020614bcc83398151915260448201526064016105a6565b7f00000000000000000000000000000000000000000000000000000000000000006001600160a01b0316868660008181106129fb57634e487b7160e01b600052603260045260246000fd5b9050602002016020810190612a109190614486565b6001600160a01b031614612a665760405162461bcd60e51b815260206004820152601d60248201527f556e69737761705632526f757465723a20494e56414c49445f5041544800000060448201526064016105a6565b612ac47f00000000000000000000000000000000000000000000000000000000000000008888888080602002602001604051908101604052809392919081815260200183836020028082843760009201919091525061371692505050565b91503482600081518110612ae857634e487b7160e01b600052603260045260246000fd5b60200260200101511115612b4e5760405162461bcd60e51b815260206004820152602760248201527f556e69737761705632526f757465723a204558434553534956455f494e50555460448201526617d05353d5539560ca1b60648201526084016105a6565b7f00000000000000000000000000000000000000000000000000000000000000006001600160a01b031663d0e30db083600081518110612b9e57634e487b7160e01b600052603260045260246000fd5b60200260200101516040518263ffffffff1660e01b81526004016000604051808303818588803b158015612bd157600080fd5b505af1158015612be5573d6000803e3d6000fd5b50505050507f00000000000000000000000000000000000000000000000000000000000000006001600160a01b031663a9059cbb612c5e7f00000000000000000000000000000000000000000000000000000000000000008989600081811061113457634e487b7160e01b600052603260045260246000fd5b84600081518110612c7f57634e487b7160e01b600052603260045260246000fd5b60200260200101516040518363ffffffff1660e01b8152600401612cb89291906001600160a01b03929092168252602082015260400190565b602060405180830381600087803b158015612cd257600080fd5b505af1158015612ce6573d6000803e3d6000fd5b505050506040513d601f19601f82011682018060405250810190612d0a9190614784565b612d2457634e487b7160e01b600052600160045260246000fd5b612d63828787808060200260200160405190810160405280939291908181526020018383602002808284376000920191909152508992506134d6915050565b81600081518110612d8457634e487b7160e01b600052603260045260246000fd5b6020026020010151341115611a8657611a863383600081518110612db857634e487b7160e01b600052603260045260246000fd5b60200260200101513461295c9190614b04565b604080516001600160a01b038481166024830152604480830185905283518084039091018152606490920183526020820180517bffffffffffffffffffffffffffffffffffffffffffffffffffffffff1663a9059cbb60e01b1790529151600092839290871691612e3c91906149fc565b6000604051808303816000865af19150503d8060008114612e79576040519150601f19603f3d011682016040523d82523d6000602084013e612e7e565b606091505b5091509150818015612ea8575080511580612ea8575080806020019051810190612ea89190614784565b612ef45760405162461bcd60e51b815260206004820152601f60248201527f5472616e7366657248656c7065723a205452414e534645525f4641494c45440060448201526064016105a6565b5050505050565b604080516000808252602082019092526001600160a01b038416908390604051612f2591906149fc565b60006040518083038185875af1925050503d8060008114612f62576040519150601f19603f3d011682016040523d82523d6000602084013e612f67565b606091505b5050905080612fde5760405162461bcd60e51b815260206004820152602360248201527f5472616e7366657248656c7065723a204554485f5452414e534645525f46414960448201527f4c4544000000000000000000000000000000000000000000000000000000000060648201526084016105a6565b505050565b600080841161305a5760405162461bcd60e51b815260206004820152602b60248201527f556e697377617056324c6962726172793a20494e53554646494349454e545f4960448201527f4e5055545f414d4f554e5400000000000000000000000000000000000000000060648201526084016105a6565b60008311801561306a5750600082115b6130c75760405162461bcd60e51b815260206004820152602860248201527f556e697377617056324c6962726172793a20494e53554646494349454e545f4c604482015267495155494449545960c01b60648201526084016105a6565b60006130d5856103e5614250565b905060006130e38285614250565b905060006130fd836130f7886103e8614250565b906142c0565b90506131098183614ac5565b979650505050505050565b60606002825110156131685760405162461bcd60e51b815260206004820152601e60248201527f556e697377617056324c6962726172793a20494e56414c49445f50415448000060448201526064016105a6565b815167ffffffffffffffff81111561319057634e487b7160e01b600052604160045260246000fd5b6040519080825280602002602001820160405280156131b9578160200160208202803683370190505b50905082816000815181106131de57634e487b7160e01b600052603260045260246000fd5b60200260200101818152505060005b600183516131fb9190614b04565b8110156132eb5760008061326a8786858151811061322957634e487b7160e01b600052603260045260246000fd5b60200260200101518786600161323f9190614aad565b8151811061325d57634e487b7160e01b600052603260045260246000fd5b602002602001015161431e565b915091506132a084848151811061329157634e487b7160e01b600052603260045260246000fd5b60200260200101518383612fe3565b846132ac856001614aad565b815181106132ca57634e487b7160e01b600052603260045260246000fd5b602002602001018181525050505080806132e390614b5e565b9150506131ed565b509392505050565b60405163e6a4390560e01b81526001600160a01b03838116600483015282811660248301526000919085169063e6a439059060440160206040518083038186803b15801561334057600080fd5b505afa158015613354573d6000803e3d6000fd5b505050506040513d601f19601f8201168201806040525081019061068b91906144a9565b604080516001600160a01b0385811660248301528481166044830152606480830185905283518084039091018152608490920183526020820180517bffffffffffffffffffffffffffffffffffffffffffffffffffffffff166323b872dd60e01b17905291516000928392908816916133f191906149fc565b6000604051808303816000865af19150503d806000811461342e576040519150601f19603f3d011682016040523d82523d6000602084013e613433565b606091505b509150915081801561345d57508051158061345d57508080602001905181019061345d9190614784565b6134ce5760405162461bcd60e51b8152602060048201526024808201527f5472616e7366657248656c7065723a205452414e534645525f46524f4d5f464160448201527f494c45440000000000000000000000000000000000000000000000000000000060648201526084016105a6565b505050505050565b60005b600183516134e79190614b04565b8110156137105760008084838151811061351157634e487b7160e01b600052603260045260246000fd5b6020026020010151858460016135279190614aad565b8151811061354557634e487b7160e01b600052603260045260246000fd5b602002602001015191509150600061355d8383613e58565b50905060008761356e866001614aad565b8151811061358c57634e487b7160e01b600052603260045260246000fd5b60200260200101519050600080836001600160a01b0316866001600160a01b0316146135ba578260006135be565b6000835b91509150600060028a516135d29190614b04565b88106135de578861363a565b61363a7f0000000000000000000000000000000000000000000000000000000000000000878c61360f8c6002614aad565b8151811061362d57634e487b7160e01b600052603260045260246000fd5b60200260200101516132f3565b90506136677f000000000000000000000000000000000000000000000000000000000000000088886132f3565b6001600160a01b031663022c0d9f84848460006040519080825280601f01601f1916602001820160405280156136a4576020820181803683370190505b506040518563ffffffff1660e01b81526004016136c49493929190614a5c565b600060405180830381600087803b1580156136de57600080fd5b505af11580156136f2573d6000803e3d6000fd5b5050505050505050505050808061370890614b5e565b9150506134d9565b50505050565b606060028251101561376a5760405162461bcd60e51b815260206004820152601e60248201527f556e697377617056324c6962726172793a20494e56414c49445f50415448000060448201526064016105a6565b815167ffffffffffffffff81111561379257634e487b7160e01b600052604160045260246000fd5b6040519080825280602002602001820160405280156137bb578160200160208202803683370190505b5090508281600183516137ce9190614b04565b815181106137ec57634e487b7160e01b600052603260045260246000fd5b6020026020010181815250506000600183516138089190614b04565b90505b80156132eb5760008061386a8786613824600187614b04565b8151811061384257634e487b7160e01b600052603260045260246000fd5b602002602001015187868151811061325d57634e487b7160e01b600052603260045260246000fd5b915091506138a084848151811061389157634e487b7160e01b600052603260045260246000fd5b60200260200101518383613c34565b846138ac600186614b04565b815181106138ca57634e487b7160e01b600052603260045260246000fd5b602002602001018181525050505080806138e390614b47565b91505061380b565b60005b600183516138fc9190614b04565b811015612fde5760008084838151811061392657634e487b7160e01b600052603260045260246000fd5b60200260200101518584600161393c9190614aad565b8151811061395a57634e487b7160e01b600052603260045260246000fd5b60200260200101519150915060006139728383613e58565b50905060006139a27f000000000000000000000000000000000000000000000000000000000000000085856132f3565b9050600080600080846001600160a01b0316630902f1ac6040518163ffffffff1660e01b815260040160606040518083038186803b1580156139e357600080fd5b505afa1580156139f7573d6000803e3d6000fd5b505050506040513d601f19601f82011682018060405250810190613a1b91906147a0565b506dffffffffffffffffffffffffffff1691506dffffffffffffffffffffffffffff169150600080876001600160a01b03168a6001600160a01b031614613a63578284613a66565b83835b6040516370a0823160e01b81526001600160a01b038a81166004830152929450909250613aa1918491908d16906370a08231906024016112dc565b9550613aae868383612fe3565b945050505050600080856001600160a01b0316886001600160a01b031614613ad857826000613adc565b6000835b91509150600060028c51613af09190614b04565b8a10613afc578a613b2d565b613b2d7f0000000000000000000000000000000000000000000000000000000000000000898e61360f8e6002614aad565b604080516000815260208101918290527f022c0d9f000000000000000000000000000000000000000000000000000000009091529091506001600160a01b0387169063022c0d9f90613b889086908690869060248101614a5c565b600060405180830381600087803b158015613ba257600080fd5b505af1158015613bb6573d6000803e3d6000fd5b505050505050505050505050508080613bce90614b5e565b9150506138ee565b600082613be38382614b04565b9150811115610af45760405162461bcd60e51b815260206004820152601560248201527f64732d6d6174682d7375622d756e646572666c6f77000000000000000000000060448201526064016105a6565b6000808411613cab5760405162461bcd60e51b815260206004820152602c60248201527f556e697377617056324c6962726172793a20494e53554646494349454e545f4f60448201527f55545055545f414d4f554e54000000000000000000000000000000000000000060648201526084016105a6565b600083118015613cbb5750600082115b613d185760405162461bcd60e51b815260206004820152602860248201527f556e697377617056324c6962726172793a20494e53554646494349454e545f4c604482015267495155494449545960c01b60648201526084016105a6565b6000613d306103e8613d2a8688614250565b90614250565b90506000613d446103e5613d2a8689613bd6565b9050613d5560016130f78385614ac5565b9695505050505050565b6000808411613dd65760405162461bcd60e51b815260206004820152602560248201527f556e697377617056324c6962726172793a20494e53554646494349454e545f4160448201527f4d4f554e5400000000000000000000000000000000000000000000000000000060648201526084016105a6565b600083118015613de65750600082115b613e435760405162461bcd60e51b815260206004820152602860248201527f556e697377617056324c6962726172793a20494e53554646494349454e545f4c604482015267495155494449545960c01b60648201526084016105a6565b82613e4e8584614250565b61068b9190614ac5565b600080826001600160a01b0316846001600160a01b03161415613ee35760405162461bcd60e51b815260206004820152602560248201527f556e697377617056324c6962726172793a204944454e544943414c5f4144445260448201527f455353455300000000000000000000000000000000000000000000000000000060648201526084016105a6565b826001600160a01b0316846001600160a01b031610613f03578284613f06565b83835b90925090506001600160a01b038216613f615760405162461bcd60e51b815260206004820152601e60248201527f556e697377617056324c6962726172793a205a45524f5f41444452455353000060448201526064016105a6565b9250929050565b60405163e6a4390560e01b81526001600160a01b0387811660048301528681166024830152600091829182917f00000000000000000000000000000000000000000000000000000000000000009091169063e6a439059060440160206040518083038186803b158015613fda57600080fd5b505afa158015613fee573d6000803e3d6000fd5b505050506040513d601f19601f8201168201806040525081019061401291906144a9565b6001600160a01b031614156140df576040517fc9c653960000000000000000000000000000000000000000000000000000000081526001600160a01b03898116600483015288811660248301527f0000000000000000000000000000000000000000000000000000000000000000169063c9c6539690604401602060405180830381600087803b1580156140a557600080fd5b505af11580156140b9573d6000803e3d6000fd5b505050506040513d601f19601f820116820180604052508101906140dd91906144a9565b505b60008061410d7f00000000000000000000000000000000000000000000000000000000000000008b8b61431e565b9150915081600014801561411f575080155b1561412f57879350869250614243565b600061413c898484613d5f565b90508781116141af57858110156141a45760405162461bcd60e51b815260206004820152602660248201527f556e69737761705632526f757465723a20494e53554646494349454e545f425f604482015265105353d5539560d21b60648201526084016105a6565b889450925082614241565b60006141bc898486613d5f565b9050898111156141dc57634e487b7160e01b600052600160045260246000fd5b8781101561423b5760405162461bcd60e51b815260206004820152602660248201527f556e69737761705632526f757465723a20494e53554646494349454e545f415f604482015265105353d5539560d21b60648201526084016105a6565b94508793505b505b5050965096945050505050565b6000811580614274575082826142668183614ae5565b92506142729083614ac5565b145b610af45760405162461bcd60e51b815260206004820152601460248201527f64732d6d6174682d6d756c2d6f766572666c6f7700000000000000000000000060448201526064016105a6565b6000826142cd8382614aad565b9150811015610af45760405162461bcd60e51b815260206004820152601460248201527f64732d6d6174682d6164642d6f766572666c6f7700000000000000000000000060448201526064016105a6565b600080600061432d8585613e58565b50905060008061433e8888886132f3565b6001600160a01b0316630902f1ac6040518163ffffffff1660e01b815260040160606040518083038186803b15801561437657600080fd5b505afa15801561438a573d6000803e3d6000fd5b505050506040513d601f19601f820116820180604052508101906143ae91906147a0565b506dffffffffffffffffffffffffffff1691506dffffffffffffffffffffffffffff169150826001600160a01b0316876001600160a01b0316146143f35780826143f6565b81815b90999098509650505050505050565b803561441081614ba5565b919050565b60008083601f840112614426578081fd5b50813567ffffffffffffffff81111561443d578182fd5b6020830191508360208083028501011115613f6157600080fd5b80516dffffffffffffffffffffffffffff8116811461441057600080fd5b803560ff8116811461441057600080fd5b600060208284031215614497578081fd5b81356144a281614ba5565b9392505050565b6000602082840312156144ba578081fd5b81516144a281614ba5565b600080604083850312156144d7578081fd5b82356144e281614ba5565b915060208301356144f281614ba5565b809150509250929050565b600080600080600080600060e0888a031215614517578283fd5b873561452281614ba5565b9650602088013561453281614ba5565b955060408801359450606088013593506080880135925060a088013561455781614ba5565b8092505060c0880135905092959891949750929550565b60008060008060008060008060008060006101608c8e03121561458f578384fd5b8b3561459a81614ba5565b9a5060208c01356145aa81614ba5565b995060408c0135985060608c0135975060808c0135965060a08c01356145cf81614ba5565b955060c08c0135945060e08c01356145e681614bbd565b93506145f56101008d01614475565b92506101208c013591506101408c013590509295989b509295989b9093969950565b600080600080600080600080610100898b031215614633578384fd5b883561463e81614ba5565b9750602089013561464e81614ba5565b965060408901359550606089013594506080890135935060a0890135925060c089013561467a81614ba5565b8092505060e089013590509295985092959890939650565b60008060008060008060c087890312156146aa578384fd5b86356146b581614ba5565b955060208701359450604087013593506060870135925060808701356146da81614ba5565b8092505060a087013590509295509295509295565b6000806000806000806000806000806101408b8d03121561470e578384fd5b8a3561471981614ba5565b995060208b0135985060408b0135975060608b0135965060808b013561473e81614ba5565b955060a08b0135945060c08b013561475581614bbd565b935061476360e08c01614475565b92506101008b013591506101208b013590509295989b9194979a5092959850565b600060208284031215614795578081fd5b81516144a281614bbd565b6000806000606084860312156147b4578081fd5b6147bd84614457565b92506147cb60208501614457565b9150604084015163ffffffff811681146147e3578182fd5b809150509250925092565b6000602082840312156147ff578081fd5b5051919050565b60008060008060006080868803121561481d578283fd5b85359450602086013567ffffffffffffffff81111561483a578384fd5b61484688828901614415565b909550935050604086013561485a81614ba5565b949793965091946060013592915050565b6000806040838503121561487d578182fd5b8235915060208084013567ffffffffffffffff8082111561489c578384fd5b818601915086601f8301126148af578384fd5b8135818111156148c1576148c1614b8f565b838102604051601f19603f830116810181811085821117156148e5576148e5614b8f565b604052828152858101935084860182860187018b1015614903578788fd5b8795505b8386101561492c5761491881614405565b855260019590950194938601938601614907565b508096505050505050509250929050565b6000806040838503121561494f578182fd5b505080516020909101519092909150565b60008060008060008060a08789031215614978578384fd5b8635955060208701359450604087013567ffffffffffffffff81111561499c578485fd5b6149a889828a01614415565b90955093505060608701356149bc81614ba5565b80925050608087013590509295509295509295565b6000806000606084860312156149e5578081fd5b505081359360208301359350604090920135919050565b60008251614a0e818460208701614b1b565b9190910192915050565b6020808252825182820181905260009190848201906040850190845b81811015614a5057835183529284019291840191600101614a34565b50909695505050505050565b60008582528460208301526001600160a01b0384166040830152608060608301528251806080840152614a968160a0850160208701614b1b565b601f01601f19169190910160a00195945050505050565b60008219821115614ac057614ac0614b79565b500190565b600082614ae057634e487b7160e01b81526012600452602481fd5b500490565b6000816000190483118215151615614aff57614aff614b79565b500290565b600082821015614b1657614b16614b79565b500390565b60005b83811015614b36578181015183820152602001614b1e565b838111156137105750506000910152565b600081614b5657614b56614b79565b506000190190565b6000600019821415614b7257614b72614b79565b5060010190565b634e487b7160e01b600052601160045260246000fd5b634e487b7160e01b600052604160045260246000fd5b6001600160a01b0381168114614bba57600080fd5b50565b8015158114614bba57600080fdfe556e69737761705632526f757465723a20455850495245440000000000000000a26469706673582212205aaede7bc66b5687d3ba6715da4e48f806a8d3ab7d25908fec48de08d2d3bc9564736f6c63430008020033",
  "linkReferences": {},
  "deployedLinkReferences": {}
}